:020000040800F2
:1000000000000220110F0008310D0008370D000814
:100010003D0D0008430D0008490D000800000000D8
:100020000000000000000000000000004F0D00086C
:100030005D0D0008000000006B0D0008790D000840
:10004000610F0008610F0008610F0008610F0008D0
:10005000610F0008610F0008610F0008610F0008C0
:10006000610F0008610F0008610F0008610F0008B0
:10007000610F0008610F0008610F0008610F0008A0
:10008000610F0008610F0008610F00080000000008
:10009000000000000000000000000000610F0008E8
:1000A000610F0008610F0008610F0008610F000870
:1000B000610F0008610F0008610F0008610F000860
:1000C000610F0008610F0008610F0008610F000850
:1000D000610F0008610F0008850D00080000000096
:1000E000610F0008610F0008610F000800000000A8
:1000F000000000000000000000000000610F000888
:1001000000000000610F0008610F0008610F000887
:1001100000000000000000000000000000000000DF
:10012000610F0008610F0008610F0008610F0008EF
:10013000610F000800000000000000000000000047
:10014000000000000000000000000000610F000837
:10015000610F0008610F0008610F0008610F0008BF
:10016000610F0008610F000800000000000000009F
:10017000000000000000000000000000000000007F
:1001800000000000610F00080000000000000000F7
:08019000610F0008610F000877
:1001A00010B5054C237833B9044B13B10448AFF3B1
:1001B00000800123237010BD7000002000000000AB
:1001C0009441000808B5034B1BB103490348AFF342
:1001D000008008BD00000000740000209441000869
:1001E00001F0FF01102A2BDB10F0070F08D010F8E8
:1001F000013B013A8B422DD010F0070F42B3F6D1EC
:10020000F0B441EA012141EA014122F007047FF004
:1002100000070023F0E80256083C85EA010586EA5B
:10022000010685FA47F5A3FA87F586FA47F6A5FA97
:1002300087F68EB9EED1F0BC01F0FF0102F00702A3
:1002400032B110F8013B013A83EA010313B1F8D14E
:100250000020704701387047002D06BF354603382F
:10026000073815F0010F07D1013015F4807F02BF68
:10027000013015F4C03F0130F0BC0138704700BFB9
:1002800053B94AB9002908BF00281CBF4FF0FF31FD
:100290004FF0FF3000F06EB9ADF1080C6DE904CEFF
:1002A00000F006F8DDF804E0DDE9022304B0704751
:1002B0002DE9F047089D04468C46002B40F08380D2
:1002C0008A42174647D9B2FA82F242B1C2F12000FF
:1002D00024FA00F09140974040EA010C94404FEA24
:1002E0001748230CBCFBF8F61FFA87FE08FB16C163
:1002F00043EA014306FB0EF1994209D9FB1806F1C6
:10030000FF3080F01981994240F21681023E3B4451
:100310005B1AA4B2B3FBF8F008FB103344EA0344C1
:1003200000FB0EFEA64509D93C1900F1FF3380F011
:100330000581A64540F2028102383C4440EA06406D
:10034000A4EB0E0400261DB1D4400023C5E90043F0
:100350003146BDE8F08702B9FFDEB2FA82F2002A28
:1003600050D1CB1B4FEA174E1FFA87F80126B3FB7B
:10037000FEFC210C0EFB1C3341EA034108FB0CF38D
:100380008B4207D979180CF1FF3002D28B4200F270
:10039000E9808446C91AA3B2B1FBFEF00EFB10112E
:1003A00043EA014408FB00F8A04507D93C1900F1D5
:1003B000FF3302D2A04500F2D9801846A4EB08040E
:1003C00040EA0C40BFE78B4209D9002D00F0B18014
:1003D0000026C5E9000130463146BDE8F087B3FA92
:1003E00083F6002E4AD18B4202D3824200F2B880BB
:1003F000841A61EB030101208C46002DA8D0C5E9C9
:10040000004CA5E7C2F1200320FA03F6974001FA59
:1004100002F04FEA174ED9403043030CB1FBFEF611
:100420001FFA87F80EFB161143EA014306FB08F199
:10043000994204FA02F409D9FB1806F1FF3C80F056
:100440008D80994240F28A80023E3B445B1A81B221
:10045000B3FBFEF00EFB103341EA034100FB08F34F
:100460008B4207D9791800F1FF3C73D28B4271D9C6
:1004700002383944CB1A40EA064678E7C6F1200C28
:1004800003FA06F422FA0CF31C4320FA0CF701FAE3
:1004900006F34FEA144E21FA0CF11F433B0CB1FB5B
:1004A000FEF91FFA84F80EFB191143EA014109FB1A
:1004B00008FA8A4502FA06F200FA06F308D961182A
:1004C00009F1FF3048D28A4546D9A9F102092144F1
:1004D000A1EB0A01BFB2B1FBFEF00EFB101147EA1F
:1004E000014700FB08F8B84507D9E71900F1FF31CB
:1004F0002ED2B8452CD90238274440EA0940A7EB50
:100500000807A0FB02894F45C64649461AD317D0B3
:100510005DB1B3EB0E0267EB010707FA0CFCF2408A
:100520004CEA0202F740C5E9002700263146BDE843
:10053000F0872E4628460BE70646E9E61846FDE614
:100540004345E5D2B8EB020E69EB04010138DFE761
:100550000846D2E760468DE78146B9E7664675E70B
:1005600030464AE7ACF1020C394413E702383C4408
:1005700024E700BF704700BF80B483B000AF78604D
:100580004FF06043D3F8803E03F00103002B13D0FB
:100590004FF06043D3F8003E03F00103002B0BD073
:1005A00000E000BF4FF060431B68002BF9D04FF014
:1005B00060437A68D2B21A707B6818460C37BD4621
:1005C0005DF8047B704780B586B000AFF860B96015
:1005D0007A6000237B6109E0BB685A1CBA601B7813
:1005E0001846FFF7C9FF7B6901337B617A697B6835
:1005F0009A42F1DB7B6818461837BD4680BD000083
:1006000080B582B000AF7860074B93F8C9301846C8
:1006100000F0B8F901220549054801F0F0FE00BFDD
:100620000837BD4680BD00BFE01F0020A920002084
:10063000B420002080B500AF00F094FC00F01EF85C
:1006400000F0A4F800F078F801220849084801F009
:10065000D6FE084800F0FCF94FF48051064801F03E
:100660001EFA41F2883000F0EFFCF2E7A9200020EA
:10067000B420002000000208000C024080B594B0B5
:1006800000AF07F1200330220021184602F05CFD84
:1006900007F10C0300221A605A609A60DA601A614E
:1006A0000023BB60224B1B6C214A43F08053136430
:1006B0001F4B1B6C03F08053BB60BB6800237B6047
:1006C0001C4B1B681B4A43F440431360194B1B68C7
:1006D00003F440437B607B6802233B620123FB629F
:1006E00010233B630023BB6307F12003184601F08E
:1006F000F1F90346002B01D000F09AF80F23FB60BC
:1007000000233B6100237B610023BB610023FB616D
:1007100007F10C030021184601F054FC0346002B9E
:1007200001D000F085F800BF5037BD4680BD00BF46
:10073000003802400070004080B500AF114B124AF3
:100740001A60104B4FF4E1325A600E4B00229A604F
:100750000C4B0022DA600B4B00221A61094B0C2271
:100760005A61084B00229A61064B0022DA61054863
:1007700001F0F8FD0346002B01D000F059F800BF4E
:1007800080BD00BFB42000200044004080B588B088
:1007900000AF07F10C0300221A605A609A60DA6019
:1007A0001A610023BB60204B1B6B1F4A43F00103FF
:1007B00013631D4B1B6B03F00103BB60BB6800237D
:1007C0007B60194B1B6B184A43F008031363164BED
:1007D0001B6B03F008037B607B6800233B60124BBC
:1007E0001B6B114A43F0020313630F4B1B6B03F0A7
:1007F00002033B603B6800224FF480510B4801F03C
:1008000035F94FF48053FB6001233B6100237B618A
:100810000023BB6107F10C031946044800F0A2FF56
:1008200000BF2037BD4680BD00380240000C0240AA
:1008300080B400AF72B600BFFEE7000080B400AF26
:100840000B4B1B78022B0DD1094B5B78002B09D188
:10085000074B9B78002B05D1054BDB78042B01D18E
:10086000012300E000231846BD465DF8047B704775
:10087000A000002080B483B000AF03460A46FB719D
:100880001346BB71FB792F2B06D9FB79392B03D883
:10089000FB79303BFB7108E0FB79402B05D9FB79F4
:1008A000462B02D8FB79373BFB71BB792F2B06D93E
:1008B000BB79392B03D8BB79303BBB7108E0BB79DE
:1008C000402B05D9BB79462B02D8BB79373BBB718E
:1008D000FB791B015AB297F9063013435BB2DBB2C6
:1008E00018460C37BD465DF8047B704780B487B06E
:1008F00000AFF860B9601346FB71FB79FA681344E6
:100900001B78FB74FB790333FA681A44FB79F968A6
:100910000B4412781A70FB790333FA681344FA7C9B
:100920001A70FB790133FA6813441B78FB74FB7966
:100930000233FA681A44FB790133F9680B441278E0
:100940001A70FB790233FA681344FA7C1A70002398
:100950007B610CE0FA797B691344FA681A447B697D
:10096000B9680B4412781A707B6901337B617B692B
:10097000032BEFDD00BF00BF1C37BD465DF8047BD5
:100980007047000090B583B000AF0346FB71FB7960
:100990000A2B0BD03A2B14D1214B00221A70214B79
:1009A0001B8801339AB21F4B1A8035E01E4B1B88FF
:1009B0005A1C91B21C4A11801A461C4B0A219954A8
:1009C0002AE0174B1B78002B09D1174AFB7993704B
:1009D000134B1B780133DAB2114B1A701BE0104B2A
:1009E0001B78012B17D1104AFB79D3700E4B9A78E4
:1009F0000D4BD9780C4B1B88581C84B20A480480D4
:100A00001C461046FFF736FF03461A46074B1A5599
:100A1000034B00221A7000BF00BF0C37BD4690BDCB
:100A20008C000020B0200020FC200020A00000202E
:100A300080B483B000AF7860044A7B68136000BF65
:100A40000C37BD465DF8047B704700BF9C0000205A
:100A500080B584B000AF7860FFF7F0FE034683F006
:100A60000103DBB2002B01D0002372E07868FFF7AE
:100A7000DFFF3A493A4802F06FFBF8605FE0374920
:100A8000002002F069FBF860FB681B78043B0C2B2C
:100A90002CD801A252F823F0CD0A0008ED0A000874
:100AA000ED0A0008ED0A0008D50A0008ED0A000862
:100AB000ED0A0008ED0A0008DD0A0008ED0A00084A
:100AC000ED0A0008ED0A0008E50A0008254B04229B
:100AD0001A710BE0234B08221A7107E0214B0C22FC
:100AE0001A7103E01F4B10221A7100BFFB68033319
:100AF0001B78002B23D10023BB6018E0BB680133B7
:100B0000DBB29B00DBB21A4617491548FFF7EEFE31
:100B1000BB680133BB60154B1968022304221248DD
:100B200000F026F8114B1B680433104A13600D4B7C
:100B30001B799B08DBB21A46BB689342DEDBFB687D
:100B4000002B9CD14FF4FA520021054802F0FCFA28
:100B5000012318461037BD4680BD00BFAC410008D8
:100B6000A0000020FC200020AC2000209C000020E1
:100B700080B588B000AFF860B9607A60FB70BB6880
:100B8000FB6100F07DFCFB78022B39D0022B51DC9D
:100B9000002B02D0012B19D04CE00023FB7610E093
:100BA000FB7EFA6813441B78DAB24FF00003F96950
:100BB000002000F011FCFB690133FB61FB7E013377
:100BC000FB76FB7E7A689A42EAD833E000233B83C7
:100BD00011E03B8B5B00FA6813441B889AB24FF01C
:100BE0000003F969012000F0F7FBFB690233FB61A8
:100BF0003B8B01333B833B8B7A689A42E9D819E0FF
:100C000000237B6111E07B699B00FA6813441B6839
:100C10001A464FF00003F969022000F0DDFBFB6982
:100C20000433FB617B6901337B617A697B689A429B
:100C3000E9D300BF00F046FC00BF2037BD4680BDB1
:100C400080B483B000AF00237B60104B5B6C0F4A15
:100C500043F4804353640D4B5B6C03F480437B602F
:100C60007B6800233B60094B1B6C084A43F08053B0
:100C70001364064B1B6C03F080533B603B6800BF62
:100C80000C37BD465DF8047B704700BF003802405A
:100C900080B58AB000AF786007F1140300221A60B3
:100CA0005A609A60DA601A617B681B681D4A934239
:100CB00033D100233B611C4B1B6C1B4A43F40033B4
:100CC0001364194B1B6C03F400333B613B69002335
:100CD000FB60154B1B6B144A43F001031363124B6B
:100CE0001B6B03F00103FB60FB680C237B61022399
:100CF000BB610023FB6103233B6207237B6207F197
:100D000014031946094800F02DFD00220121262078
:100D100000F099FA262000F0B2FA00BF2837BD464D
:100D200080BD00BF00440040003802400000024087
:100D300080B400AFFEE780B400AFFEE780B400AF40
:100D4000FEE780B400AFFEE780B400AFFEE780B4FA
:100D500000AF00BFBD465DF8047B704780B400AFB4
:100D600000BFBD465DF8047B704780B400AF00BF94
:100D7000BD465DF8047B704780B500AF00F044F9D4
:100D800000BF80BD80B500AF024801F069FB00BF25
:100D900080BD00BFB420002080B400AF01231846FE
:100DA000BD465DF8047B704780B582B000AF7860C7
:100DB000396002F09FF9034616221A604FF0FF33A4
:100DC00018460837BD4680BD80B582B000AF786058
:100DD0004FF0FF317868FFF7E7FFFEE780B586B098
:100DE00000AFF860B9607A6000237B610AE0AFF37E
:100DF00000800146BB685A1CBA60CAB21A707B698F
:100E000001337B617A697B689A42F0DB7B68184624
:100E10001837BD4680BD80B483B000AF78604FF016
:100E2000FF3318460C37BD465DF8047B704780B42D
:100E300083B000AF786039603B684FF400525A606D
:100E4000002318460C37BD465DF8047B704780B41C
:100E500083B000AF7860012318460C37BD465DF8BB
:100E6000047B704780B485B000AFF860B9607A60E9
:100E7000002318461437BD465DF8047B7047000018
:100E800080B586B000AF7860144A154BD31A7B61E9
:100E90007B693B61134B1B68002B02D1114B124A3B
:100EA0001A60104B1A687B6813443A699A4207D259
:100EB00002F020F903460C221A604FF0FF3309E0DC
:100EC000084B1B68FB60074B1A687B681344054A94
:100ED0001360FB6818461837BD4680BD000002202D
:100EE00000040000900000203821002080B400AFF2
:100EF000064BD3F88830054A43F47003C2F88830B3
:100F000000BFBD465DF8047B704700BF00ED00E008
:100F1000DFF834D00D480E490E4A002302E0D458C1
:100F2000C4500433C4188C42F9D30B4A0B4C002331
:100F300001E013600432A242FBD3FFF7D7FF02F0B7
:100F4000DFF8FFF777FB7047000002200000002069
:100F50007000002024430008700000203821002089
:100F6000FEE7000080B500AF0E4B1B680D4A43F44E
:100F7000007313600B4B1B680A4A43F480631360D1
:100F8000084B1B68074A43F480731360032000F08A
:100F90004FF90F2000F008F8FFF752FE0023184623
:100FA00080BD00BF003C024080B582B000AF7860D9
:100FB000124B1A68124B1B7819464FF47A73B3FB25
:100FC000F1F3B2FBF3F3184600F067F90346002B88
:100FD00001D001230EE07B680F2B0AD8002279682C
:100FE0004FF0FF3000F02FF9064A7B6813600023B2
:100FF00000E0012318460837BD4680BD00000020F0
:10100000080000200400002080B400AF064B1B78CD
:101010001A46064B1B681344044A136000BFBD46C2
:101020005DF8047B704700BF080000200421002009
:1010300080B400AF034B1B681846BD465DF8047BC7
:10104000704700BF0421002080B584B000AF7860F5
:10105000FFF7EEFFB8607B68FB60FB68B3F1FF3F12
:1010600005D00A4B1B781A46FB681344FB6000BF8F
:10107000FFF7DEFF0246BB68D31AFA689A42F7D838
:1010800000BF00BF1037BD4680BD00BF0800002074
:1010900080B485B000AF78607B6803F00703FB6025
:1010A0000C4BDB68BB60BA684FF6FF031340BB60B4
:1010B000FB681A02BB68134343F0BF6343F4003379
:1010C000BB60044ABB68D36000BF1437BD465DF8FF
:1010D000047B704700ED00E080B400AF044BDB6898
:1010E0001B0A03F007031846BD465DF8047B7047F2
:1010F00000ED00E080B483B000AF0346FB7197F9C8
:101100000730002B0BDBFB7903F01F02074997F92F
:1011100007305B09012000FA02F241F8232000BFEA
:101120000C37BD465DF8047B704700BF00E100E06E
:1011300080B483B000AF03463960FB7197F9073084
:10114000002B0ADB3B68DAB20C4997F90730120131
:10115000D2B20B4483F800230AE03B68DAB20849B4
:10116000FB7903F00F03043B1201D2B20B441A7651
:1011700000BF0C37BD465DF8047B704700E100E01E
:1011800000ED00E080B489B000AFF860B9607A602B
:10119000FB6803F00703FB61FB69C3F10703042B42
:1011A00028BF0423BB61FB690433062B02D9FB690A
:1011B000033B00E000237B614FF0FF32BB6902FA82
:1011C00003F3DA43BB681A407B699A404FF0FF3162
:1011D0007B6901FA03F3D9437B680B40134318463C
:1011E0002437BD465DF8047B7047000080B582B0AF
:1011F00000AF78607B68013BB3F1807F01D30123AE
:101200000FE00A4A7B68013B53600F214FF0FF302B
:10121000FFF78EFF054B00229A60044B07221A60ED
:10122000002318460837BD4680BD00BF10E000E02F
:1012300080B582B000AF78607868FFF729FF00BF03
:101240000837BD4680BD80B586B000AF0346B960A3
:101250007A60FB7300237B61FFF73EFF78617A6859
:10126000B9687869FFF78EFF024697F90F3011468B
:101270001846FFF75DFF00BF1837BD4680BD80B53B
:1012800082B000AF0346FB7197F907301846FFF7AD
:1012900031FF00BF0837BD4680BD80B582B000AFCA
:1012A00078607868FFF7A2FF034618460837BD4606
:1012B00080BD80B584B000AF78607B689B6DFB60BB
:1012C000FFF7B6FEB8607B6893F83530DBB2022BCF
:1012D00008D07B6880225A657B68002283F834201E
:1012E000012352E07B681B681A687B681B6822F048
:1012F00016021A607B681B685A697B681B6822F0BB
:1013000080025A617B681B6C002B03D17B689B6C4D
:10131000002B07D07B681B681A687B681B6822F06B
:1013200008021A607B681B681A687B681B6822F0D9
:1013300001021A6013E0FFF77BFE0246BB68D31A76
:10134000052B0CD97B6820225A657B68032283F821
:1013500035207B68002283F83420032315E07B6866
:101360001B681B6803F00103002BE4D17B68DB6D75
:101370003F229A40FB689A607B68012283F83520FF
:101380007B68002283F83420002318461037BD46BE
:1013900080BD80B483B000AF78607B6893F835304F
:1013A000DBB2022B04D07B6880225A6501230CE05B
:1013B0007B68052283F835207B681B681A687B6888
:1013C0001B6822F001021A60002318460C37BD4644
:1013D0005DF8047B7047000080B586B000AFF86010
:1013E000B960C7E900230123FB75234B1B7E012B4A
:1013F00001D102233BE0204B01221A764CF25030FF
:1014000000F070F80346FB75FB7D002B2BD1FB68C9
:10141000002B05D13B781946B86800F01BF916E09F
:10142000FB68012B05D13B881946B86800F0EEF83F
:101430000DE0FB68022B05D13B681946B86800F047
:10144000C3F804E0D7E90023B86800F08BF84CF249
:10145000503000F047F80346FB75084B1B69074AFC
:1014600023F001031361044B00221A76FB7D18461A
:101470001837BD4680BD00BF08210020003C024057
:1014800080B483B000AF0023FB710B4B1B69002BB2
:101490000BDA094B094A5A60074B094A5A60064B56
:1014A0001B69002B01DA0123FB71FB7918460C370D
:1014B000BD465DF8047B7047003C02402301674550
:1014C000AB89EFCD80B400AF054B1B69044A43F0F4
:1014D0000043136100231846BD465DF8047B704746
:1014E000003C024080B584B000AF78600023FB6010
:1014F0001A4B0022DA61FFF79BFDF86010E07B6871
:10150000B3F1FF3F0CD07B68002B07D0FFF790FDB5
:101510000246FB68D31A7A689A4201D2032319E083
:101520000F4BDB6803F48033002BE8D10C4BDB68F6
:1015300003F00103002B02D0094B0122DA60084BB3
:10154000DB6803F4F973002B03D000F0A5F8012346
:1015500000E0002318461037BD4680BD082100205A
:10156000003C024080B485B000AFF860C7E90023BA
:10157000144B1B69134A23F440731361114B1B690D
:10158000104A43F4407313610E4B1B690D4A43F03C
:1015900001031361FB683A681A60BFF36F8F00BFE5
:1015A000D7E900014FF000024FF000030A000023CA
:1015B000F968043113460B6000BF1437BD465DF86F
:1015C000047B7047003C024080B483B000AF786079
:1015D00039600D4B1B690C4A23F4407313610A4BAD
:1015E0001B69094A43F400731361074B1B69064AE0
:1015F00043F0010313617B683A681A6000BF0C373F
:10160000BD465DF8047B7047003C024080B483B067
:1016100000AF78600B467B800D4B1B690C4A23F4AE
:10162000407313610A4B1B69094A43F480731361C9
:10163000074B1B69064A43F0010313617B687A88F4
:101640001A8000BF0C37BD465DF8047B704700BFB1
:10165000003C024080B483B000AF78600B46FB7062
:101660000C4B1B690B4A23F440731361094B094A65
:101670001B691361074B1B69064A43F001031361A1
:101680007B68FA781A7000BF0C37BD465DF8047BA2
:10169000704700BF003C024080B400AF2F4BDB68B6
:1016A00003F01003002B08D02D4BDB6943F010032F
:1016B0002B4AD361294B1022DA60284BDB6803F0F8
:1016C0002003002B08D0264BDB6943F00803244A93
:1016D000D361224B2022DA60204BDB6803F0400309
:1016E000002B08D01E4BDB6943F004031C4AD36176
:1016F0001A4B4022DA60194BDB6803F08003002BA1
:1017000008D0174BDB6943F00203154AD361134B32
:101710008022DA60114BDB6803F48073002B09D060
:101720000F4BDB6943F001030D4AD3610B4B4FF4C0
:101730008072DA60094BDB6803F00203002B08D0EB
:10174000074BDB6943F02003054AD361034B0222B8
:10175000DA6000BFBD465DF8047B7047003C024084
:101760000821002080B489B000AF78603960002380
:101770007B6100233B610023BB610023FB6159E1D6
:101780000122FB6902FA03F37B613B681B687A69FB
:1017900013403B613A697B699A4240F048813B685B
:1017A0005B6803F00303012B05D03B685B6803F023
:1017B0000303022B30D17B689B68BB61FB695B0034
:1017C000032202FA03F3DB43BA691340BB613B68AF
:1017D000DA68FB695B0002FA03F3BA691343BB6181
:1017E0007B68BA699A607B685B68BB610122FB69B0
:1017F00002FA03F3DB43BA691340BB613B685B68E1
:101800001B0903F00102FB6902FA03F3BA691343EF
:10181000BB617B68BA695A603B685B6803F003038D
:10182000032B17D07B68DB68BB61FB695B0003227D
:1018300002FA03F3DB43BA691340BB613B689A6861
:10184000FB695B0002FA03F3BA691343BB617B686F
:10185000BA69DA603B685B6803F00303022B23D1AB
:10186000FB69DA087B68083253F82230BB61FB69F8
:1018700003F007039B000F2202FA03F3DB43BA696C
:101880001340BB613B681A69FB6903F007039B00C7
:1018900002FA03F3BA691343BB61FB69DA087B6898
:1018A0000832B96943F822107B681B68BB61FB6989
:1018B0005B00032202FA03F3DB43BA691340BB6106
:1018C0003B685B6803F00302FB695B0002FA03F309
:1018D000BA691343BB617B68BA691A603B685B688D
:1018E00003F44033002B00F0A2800023FB60574B31
:1018F0005B6C564A43F480435364544B5B6C03F473
:101900008043FB60FB68524AFB699B08023352F834
:101910002330BB61FB6903F003039B000F2202FA33
:1019200003F3DB43BA691340BB617B68494A9342C6
:1019300019D07B68484A934213D07B68474A934248
:101940000DD07B68464A934207D07B68454A934254
:1019500001D1042308E0072306E0032304E0022367
:1019600002E0012300E00023FA6902F00302920082
:101970009340BA691343BB613549FB699B08023345
:10198000BA6941F82320384B1B68BB613B69DB43D4
:10199000BA691340BB613B685B6803F48033002B7A
:1019A00003D0BA693B691343BB612F4ABB6913601B
:1019B0002D4B5B68BB613B69DB43BA691340BB617C
:1019C0003B685B6803F40033002B03D0BA693B69C2
:1019D0001343BB61244ABB695360234B9B68BB61C3
:1019E0003B69DB43BA691340BB613B685B6803F446
:1019F0008013002B03D0BA693B691343BB611A4AB9
:101A0000BB699360184BDB68BB613B69DB43BA6918
:101A10001340BB613B685B6803F40013002B03D0E9
:101A2000BA693B691343BB610F4ABB69D360FB6969
:101A30000133FB61FB690F2B7FF6A2AE00BF00BF35
:101A40002437BD465DF8047B704700BF0038024074
:101A5000003801400000024000040240000802403B
:101A6000000C024000100240003C014080B483B0F2
:101A700000AF78600B467B8013467B707B78002B31
:101A800003D07A887B689A6103E07B881A047B68BC
:101A90009A6100BF0C37BD465DF8047B704780B487
:101AA00085B000AF78600B467B807B685B69FB602C
:101AB0007A88FB6813401A04FB68D9437B880B4083
:101AC0001A437B689A6100BF1437BD465DF8047BFA
:101AD0007047000080B586B000AF78607B68002B4F
:101AE00001D1012364E27B681B6803F00103002B32
:101AF00075D0A34B9B6803F00C03042B0CD0A04BB8
:101B00009B6803F00C03082B12D19D4B5B6803F418
:101B10008003B3F5800F0BD1994B1B6803F400339E
:101B2000002B5BD07B685B68002B57D101233FE221
:101B30007B685B68B3F5803F06D1914B1B68904A88
:101B400043F4803313601DE07B685B68B3F5A02F1E
:101B50000CD18B4B1B688A4A43F480231360884B5B
:101B60001B68874A43F4803313600BE0844B1B6887
:101B7000834A23F480331360814B1B68804A23F42B
:101B8000802313607B685B68002B13D0FFF750FA4B
:101B9000386108E0FFF74CFA02463B69D31A642B20
:101BA00001D9032304E2764B1B6803F40033002BB6
:101BB000F0D014E0FFF73CFA386108E0FFF738FA9C
:101BC00002463B69D31A642B01D90323F0E16C4B25
:101BD0001B6803F40033002BF0D100E000BF7B68EA
:101BE0001B6803F00203002B63D0654B9B6803F076
:101BF0000C03002B0BD0624B9B6803F00C03082BEB
:101C00001CD15F4B5B6803F48003002B16D15C4B47
:101C10001B6803F00203002B05D07B68DB68012BF7
:101C200001D00123C4E1564B1B6823F0F8027B6806
:101C30001B69DB00524913430B603AE07B68DB68A9
:101C4000002B20D04F4B01221A60FFF7F1F93861C9
:101C500008E0FFF7EDF902463B69D31A022B01D9E0
:101C60000323A5E1464B1B6803F00203002BF0D0D1
:101C7000434B1B6823F0F8027B681B69DB0040497B
:101C800013430B6015E03F4B00221A60FFF7D0F9B9
:101C9000386108E0FFF7CCF902463B69D31A022B02
:101CA00001D9032384E1364B1B6803F00203002BA8
:101CB000F0D17B681B6803F00803002B30D07B68F1
:101CC0005B69002B16D0304B01221A60FFF7B0F988
:101CD000386108E0FFF7ACF902463B69D31A022BE2
:101CE00001D9032364E1264B5B6F03F00203002B51
:101CF000F0D015E0244B00221A60FFF799F9386103
:101D000008E0FFF795F902463B69D31A022B01D987
:101D100003234DE11A4B5B6F03F00203002BF0D15C
:101D20007B681B6803F00403002B00F0A0800023F5
:101D3000FB75134B1B6C03F08053002B0FD100235A
:101D4000BB600F4B1B6C0E4A43F0805313640C4B6B
:101D50001B6C03F08053BB60BB680123FB750B4B0E
:101D60001B6803F48073002B21D1084B1B68074AC2
:101D700043F480731360FFF75BF9386111E000BF33
:101D80000038024000004742800E47420070004089
:101D9000FFF74EF902463B69D31A022B01D9032300
:101DA00006E1854B1B6803F48073002BF0D07B6841
:101DB0009B68012B06D1814B1B6F804A43F00103C6
:101DC00013671CE07B689B68052B0CD17B4B1B6F5A
:101DD0007A4A43F004031367784B1B6F774A43F04A
:101DE000010313670BE0754B1B6F744A23F001036B
:101DF0001367724B1B6F714A23F0040313677B68F0
:101E00009B68002B15D0FFF713F938610AE0FFF744
:101E10000FF902463B69D31A41F28832934201D945
:101E20000323C5E0654B1B6F03F00203002BEED0CC
:101E300014E0FFF7FDF838610AE0FFF7F9F8024611
:101E40003B69D31A41F28832934201D90323AFE0B0
:101E50005A4B1B6F03F00203002BEED1FB7D012BCD
:101E600005D1564B1B6C554A23F0805313647B6895
:101E70009B69002B00F09B80504B9B6803F00C0388
:101E8000082B5CD07B689B69022B41D14C4B002214
:101E90001A60FFF7CDF8386108E0FFF7C9F802468D
:101EA0003B69D31A022B01D9032381E0434B1B6802
:101EB00003F00073002BF0D17B68DA697B681B6A42
:101EC0001A437B685B6A9B011A437B689B6A5B08C9
:101ED000013B1B041A437B68DB6A1B06374913432B
:101EE0004B60374B01221A60FFF7A2F8386108E017
:101EF000FFF79EF802463B69D31A022B01D9032350
:101F000056E02E4B1B6803F00073002BF0D04EE020
:101F10002B4B00221A60FFF78BF8386108E0FFF7BF
:101F200087F802463B69D31A022B01D903233FE00D
:101F3000224B1B6803F00073002BF0D137E07B6865
:101F40009B69012B01D1012332E01C4B5B68FB60D4
:101F50007B689B69012B28D0FB6803F480027B68B7
:101F6000DB699A4221D1FB6803F03F027B681B6A60
:101F70009A421AD1FA6847F6C07313407A68526AD7
:101F80009201934211D1FB6803F440327B689B6A53
:101F90005B08013B1B049A4207D1FB6803F07062A7
:101FA0007B68DB6A1B069A4201D0012300E0002314
:101FB00018461837BD4680BD00700040003802400A
:101FC0006000474280B584B000AF786039607B68BC
:101FD000002B01D10123CCE0684B1B6803F0070301
:101FE0003A689A420CD9654B3A68D2B21A70634B80
:101FF0001B6803F007033A689A4201D00123B8E056
:102000007B681B6803F00203002B20D07B681B68F1
:1020100003F00403002B05D0594B9B68584A43F446
:10202000E05393607B681B6803F00803002B05D026
:10203000534B9B68524A43F460439360504B9B68F8
:1020400023F0F0027B689B684D4913438B607B68EB
:102050001B6803F00103002B44D07B685B68012BF5
:1020600007D1474B1B6803F40033002B19D1012320
:102070007FE07B685B68022B03D07B685B68032B87
:1020800007D13F4B1B6803F00073002B09D10123DC
:102090006FE03B4B1B6803F00203002B01D10123CF
:1020A00067E0374B9B6823F003027B685B68344929
:1020B00013438B60FEF7BCFFF8600AE0FEF7B8FF41
:1020C0000246FB68D31A41F28832934201D90323B6
:1020D0004FE02B4B9B6803F00C027B685B689B0016
:1020E0009A42EBD1254B1B6803F007033A689A42EA
:1020F0000CD2224B3A68D2B21A70204B1B6803F004
:1021000007033A689A4201D0012332E07B681B68DA
:1021100003F00403002B08D0194B9B6823F4E05212
:102120007B68DB68164913438B607B681B6803F090
:102130000803002B09D0124B9B6823F460427B6894
:102140001B69DB000E4913438B6000F021F8024647
:102150000B4B9B681B0903F00F030A49CB5C22FA67
:1021600003F3094A1360094B1B681846FEF71CFF6E
:10217000002318461037BD4680BD00BF003C02401A
:1021800000380240B0410008000000200400002098
:10219000B0B584B000AF002179600021F960002162
:1021A00039600021B9605249896801F00C010829A1
:1021B0000DD0082900F29480002902D0042903D010
:1021C0008EE04C4BBB608EE04B4BBB608BE04849D4
:1021D000496801F03F0179604549496801F480018F
:1021E000002924D042494968890908464FF0000176
:1021F00040F2FF144FF0000500EA040201EA050373
:102200003D4901FB03F0002101FB02F144183A496A
:10221000A2FB0101631819467B681A464FF00003C0
:10222000FEF72EF802460B461346FB604AE0304BA1
:102230005B689B091A464FF0000340F2FF104FF015
:10224000000102EA000403EA0105204629464FF096
:1022500000024FF000034B0143EAD06342011046F5
:102260001946001B61EB05014FF000024FF000031F
:102270008B0143EA90638201121A63EB01034FF072
:1022800000004FF00001D90041EA5271D00002462F
:102290000B46121945EB03034FF000004FF000010D
:1022A000990241EA9251900202460B4610461946A5
:1022B0007B681A464FF00003FDF7E2FF02460B462B
:1022C0001346FB600A4B5B681B0C03F003030133EE
:1022D0005B003B60FA683B68B2FBF3F3BB6002E073
:1022E000044BBB6000BFBB6818461037BD46B0BD8D
:1022F000003802400024F40040787D0180B400AF33
:10230000034B1B681846BD465DF8047B704700BF51
:102310000000002080B500AFFFF7F0FF0246054B3C
:102320009B689B0A03F007030349CB5C22FA03F383
:10233000184680BD00380240C041000880B500AF9B
:10234000FFF7DCFF0246054B9B685B0B03F00703BE
:102350000349CB5C22FA03F3184680BD00380240E3
:10236000C041000880B582B000AF78607B68002B68
:1023700001D101233FE07B6893F83D30DBB2002BB5
:1023800006D17B68002283F83C207868FEF780FC49
:102390007B68242283F83D207B681B68DA687B68B1
:1023A0001B6822F40052DA60786800F0DBFC7B687E
:1023B0001B681A697B681B6822F490421A617B686B
:1023C0001B685A697B681B6822F02A025A617B6885
:1023D0001B68DA687B681B6842F40052DA607B682D
:1023E00000221A647B68202283F83D207B6820222B
:1023F00083F83E20002318460837BD4680BD80B5CF
:1024000084B000AFF860B9601346FB80FB6893F8B6
:102410003E30DBB2202B1DD1BB68002B02D0FB88E5
:10242000002B01D1012316E0FB6893F83C30012B0F
:1024300001D102230FE0FB68012283F83C20FB68F6
:1024400000221A63FB881A46B968F86800F0B6FAE9
:10245000034600E0022318461037BD4680BD000049
:1024600080B5BAB000AF78607B681B681B68C7F89E
:10247000E4307B681B68DB68C7F8E0307B681B686A
:102480005B69C7F8DC300023C7F8D8300023C7F8F1
:10249000D430D7F8E43003F00F03C7F8D830D7F8BA
:1024A000D830002B0FD1D7F8E43003F02003002BF5
:1024B00009D0D7F8E03003F02003002B03D0786870
:1024C00000F095FB56E2D7F8D830002B00F0DE8004
:1024D000D7F8DC3003F00103002B06D1D7F8E03049
:1024E00003F49073002B00F0D180D7F8E43003F0B0
:1024F0000103002B0BD0D7F8E03003F48073002BDE
:1025000005D07B681B6C43F001027B681A64D7F826
:10251000E43003F00403002B0BD0D7F8DC3003F0D9
:102520000103002B05D07B681B6C43F002027B6823
:102530001A64D7F8E43003F00203002B0BD0D7F86D
:10254000DC3003F00103002B05D07B681B6C43F0EB
:1025500004027B681A64D7F8E43003F00803002B08
:1025600011D0D7F8E03003F02003002B05D1D7F8C5
:10257000DC3003F00103002B05D07B681B6C43F0BB
:1025800008027B681A647B681B6C002B00F0ED81ED
:10259000D7F8E43003F02003002B08D0D7F8E03060
:1025A00003F02003002B02D0786800F020FB7B684A
:1025B0001B685B6903F04003402B0CBF0123002321
:1025C000DBB2C7F8D4307B681B6C03F00803002B28
:1025D00003D1D7F8D430002B4FD0786800F028FA18
:1025E0007B681B685B6903F04003402B41D17B682B
:1025F0001B681433C7F89C30D7F89C3053E8003F71
:10260000C7F89830D7F8983023F04003C7F8D03097
:102610007B681B681433D7F8D020C7F8A820C7F808
:10262000A430D7F8A410D7F8A82041E80023C7F8B1
:10263000A030D7F8A030002BD9D17B689B6B002B42
:1026400013D07B689B6B7D4A1A657B689B6B184631
:10265000FEF79FFE0346002B16D07B689B6B1B6D1D
:102660007A68926B104698470EE0786800F090F90F
:102670000AE0786800F08CF906E0786800F088F9E4
:102680007B6800221A6470E100BF6EE17B681B6BFF
:10269000012B40F04A81D7F8E43003F01003002BFF
:1026A00000F04381D7F8E03003F01003002B00F076
:1026B0003C810023BB607B681B681B68BB607B6838
:1026C0001B685B68BB60BB687B681B685B6903F069
:1026D0004003402B40F0B4807B689B6B1B685B68B9
:1026E000A7F8BE30B7F8BE30002B00F040817B6801
:1026F0009B8DB7F8BE209A4280F039817B68B7F88D
:10270000BE20DA857B689B6BDB69B3F5807F00F0C8
:1027100088807B681B680C33C7F88830D7F888300E
:1027200053E8003FC7F88430D7F8843023F480732F
:10273000C7F8B8307B681B680C33D7F8B820C7F8E7
:102740009420C7F89030D7F89010D7F8942041E83B
:102750000023C7F88C30D7F88C30002BD9D17B6898
:102760001B6814337B677B6F53E8003F3B673B6F0D
:1027700023F00103C7F8B4307B681B681433D7F823
:10278000B420C7F88020FB67F96FD7F8802041E8B4
:102790000023BB67BB6F002BE1D17B681B68143340
:1027A0003B663B6E53E8003FFB65FB6D23F0400347
:1027B000C7F8B0307B681B681433D7F8B020FA66CE
:1027C000BB66B96EFA6E41E800237B667B6E002B18
:1027D000E3D17B68202283F83E207B6800221A63C5
:1027E0007B681B680C33FB64FB6C53E8003FBB64E5
:1027F000BB6C23F01003C7F8AC307B681B680C334C
:10280000D7F8AC20BA657B65796DBA6D41E80023D5
:102810003B653B6D002BE3D17B689B6B1846FEF755
:1028200048FD7B689A8D7B68DB8D9BB2D31A9BB287
:102830001946786800F0B6F899E000BFF72A00085A
:102840007B689A8D7B68DB8D9BB2D31AA7F8CE305C
:102850007B68DB8D9BB2002B00F08B80B7F8CE300D
:10286000002B00F086807B681B680C33BB63BB6B5E
:1028700053E8003F7B637B6B23F49073C7F8C83049
:102880007B681B680C33D7F8C8207A643B64396CCA
:102890007A6C41E80023FB63FB6B002BE3D17B6880
:1028A0001B6814337B627B6A53E8003F3B623B6AE0
:1028B00023F00103C7F8C4307B681B681433D7F8D2
:1028C000C4203A63FB62F96A3A6B41E80023BB62B9
:1028D000BB6A002BE3D17B68202283F83E207B6813
:1028E00000221A637B681B680C333B613B6953E829
:1028F000003FFB60FB6823F01003C7F8C0307B6823
:102900001B680C33D7F8C020FA61BB61B969FA695A
:1029100041E800237B617B69002BE3D1B7F8CE301F
:102920001946786800F03EF823E0D7F8E43003F069
:102930008003002B09D0D7F8E03003F08003002B90
:1029400003D0786800F0EBF814E0D7F8E43003F037
:102950004003002B0ED0D7F8E03003F04003002BEB
:1029600008D0786800F02BF904E000BF02E000BF57
:1029700000E000BFE837BD4680BD00BF80B483B033
:1029800000AF786000BF0C37BD465DF8047B704730
:1029900080B483B000AF786000BF0C37BD465DF8EF
:1029A000047B704780B483B000AF78600B467B80B7
:1029B00000BF0C37BD465DF8047B704780B485B01E
:1029C00000AFF860B9601346FB80FB68BA689A6292
:1029D000FB68FA889A85FB68FA88DA85FB6800222A
:1029E0001A64FB68222283F83E20FB68002283F8E9
:1029F0003C20FB681B68DA68FB681B6842F4807245
:102A0000DA60FB681B685A69FB681B6842F00102C8
:102A10005A61FB681B68DA68FB681B6842F0200299
:102A2000DA60002318461437BD465DF8047B704712
:102A300080B495B000AF78607B681B680C337B6313
:102A40007B6B53E8003F3B633B6B23F49073FB6469
:102A50007B681B680C33FA6C3A64FB63F96B3A6C65
:102A600041E80023BB63BB6B002BE5D17B681B688F
:102A700014333B623B6A53E8003FFB61FB6923F080
:102A80000103BB647B681B681433BA6CFA62BB62D7
:102A9000B96AFA6A41E800237B627B6A002BE5D1C0
:102AA0007B681B6B012B19D17B681B680C33FB60A7
:102AB000FB6853E8003FBB60BB6823F010037B64F6
:102AC0007B681B680C337A6CBA617B617969BA697F
:102AD00041E800233B613B69002BE5D17B68202264
:102AE00083F83E207B6800221A6300BF5437BD463E
:102AF0005DF8047B704780B584B000AF78607B6878
:102B00009B6BFB60FB680022DA85FB680022DA849D
:102B1000F868FFF73DFF00BF1037BD4680BD80B4A9
:102B200085B000AF78607B6893F83D30DBB2212B35
:102B30003ED17B689B68B3F5805F14D17B681B69CD
:102B4000002B10D17B681B6AFB60FB681B881A4650
:102B50007B681B68C2F308025A607B681B6A9A1C78
:102B60007B681A6208E07B681B6A591C7A681162EC
:102B70001A787B681B685A607B68DB8C9BB2013BD0
:102B80009BB27A681946D184002B0FD17B681B68F1
:102B9000DA687B681B6822F08002DA607B681B6859
:102BA000DA687B681B6842F04002DA60002300E0CC
:102BB000022318461437BD465DF8047B704780B584
:102BC00082B000AF78607B681B68DA687B681B683E
:102BD00022F04002DA607B68202283F83D2078688A
:102BE000FFF7CCFE002318460837BD4680BD80B5F0
:102BF0008CB000AF78607B6893F83E30DBB2222B5C
:102C000040F0AB807B689B68B3F5805F17D17B6831
:102C10001B69002B13D10023FB627B689B6ABB629C
:102C20007B681B685B689BB2C3F308039AB2BB6AFC
:102C30001A807B689B6A9A1C7B689A6226E07B6894
:102C40009B6AFB620023BB627B689B68B3F5805F75
:102C500007D07B689B68002B0AD17B681B69002B1F
:102C600006D17B681B685B68DAB2FB6A1A7008E001
:102C70007B681B685B68DBB203F07F03DAB2FB6A38
:102C80001A707B689B6A5A1C7B689A627B68DB8D32
:102C90009BB2013B9BB27A681946D185002B5AD171
:102CA0007B681B68DA687B681B6822F02002DA60A8
:102CB0007B681B68DA687B681B6822F48072DA60C4
:102CC0007B681B685A697B681B6822F001025A61A5
:102CD0007B68202283F83E207B681B6B012B35D15B
:102CE0007B6800221A637B681B680C337B617B69FD
:102CF00053E8003F3B613B6923F010037B627B6834
:102D00001B680C337A6A3A62FB61F9693A6A41E8F6
:102D10000023BB61BB69002BE5D17B681B681B6886
:102D200003F01003102B0AD10023FB607B681B68A3
:102D30001B68FB607B681B685B68FB60FB687B68EB
:102D40009B8D19467868FFF72DFE02E07868FDF745
:102D500057FC002302E0002300E00223184630372E
:102D6000BD4680BD2DE9F04F9FB000AFF866FB6E09
:102D70001B681B6923F44050FB6ED968FB6E1A6810
:102D800040EA01031361FB6E9A68FB6E1B691A43EC
:102D9000FB6E5B691A43FB6EDB6913433B67FB6E9B
:102DA0001B68DB6823F4164121F00C01FB6E1A68E6
:102DB0003B6F0B43D360FB6E1B685B6923F4407071
:102DC000FB6E9969FB6E1A6840EA01035361FB6E62
:102DD0001A68C54B9A4204D0FB6E1A68C34B9A42DC
:102DE00003D1FFF7ABFA786702E0FFF793FA786751
:102DF000FB6EDB69B3F5004F40F0B6807B6F1C467D
:102E00004FF0000522462B46911839645B417B64E4
:102E1000D7E91023121945EB03034FF000004FF0E0
:102E20000001D90041EA5271D00002460B46111947
:102E300039666B417B66FB6E5B681A464FF0000398
:102E40009118B9635B41FB63D7E90E23D7E91801F9
:102E5000FDF716FA02460B46A54BA3FB02235B09BE
:102E60001E017B6F1C464FF0000522462B46911831
:102E700039635B417B63D7E90C23121945EB0303EC
:102E80004FF000004FF00001D90041EA5271D0002C
:102E900002460B461119B9656B41FB65FB6E5B6819
:102EA0001A464FF000039118B9625B41FB62D7E903
:102EB0000A23D7E91601FDF7E3F902460B468C4BCE
:102EC000A3FB02135B09642101FB03F3D31ADB00AC
:102ED0003233874AA2FB03235B095B0003F4F873D8
:102EE0001E447B6F18464FF0000102460B469418B3
:102EF0003C625B417B62D7E90823121841EB030374
:102F00004FF000044FF00005DD0045EA5275D40093
:102F100022462B4614183C654B417B65FB6E5B6873
:102F20001A464FF000039118B9615B41FB61D7E984
:102F30000623D7E91401FDF7A3F902460B466C4BB3
:102F4000A3FB02135B09642101FB03F3D31ADB002B
:102F50003233674AA2FB03235B0903F00702FB6ECF
:102F60001B6832449A60B9E07B6F1C464FF0000545
:102F700022462B46911839615B417B61D7E90423D6
:102F8000121945EB03034FF000004FF00001D90088
:102F900041EA5271D00002460B4612EB040843EBA3
:102FA0000509FB6E5B6818464FF000014FF0000208
:102FB0004FF000038B0043EA90738200404649467D
:102FC000FDF75EF902460B46494BA3FB02235B0962
:102FD0001E017B6F18464FF0000102460B46941805
:102FE000BC605B41FB60D7E90223121841EB03038D
:102FF0004FF000044FF00005DD0045EA5275D400A3
:1030000022462B461418BC644B41FB64FB6E5B6884
:1030100018464FF000014FF000024FF000038B0004
:1030200043EA90738200D7E91201FDF729F90246BD
:103030000B462F4BA3FB02135B09642101FB03F337
:10304000D31A1B0132332A4AA2FB03235B0903F084
:10305000F0031E447B6F18464FF0000102460B46FA
:1030600094183C605B417B60D7E90023121841EB68
:1030700003034FF000044FF00005DD0045EA5275F0
:10308000D40022462B4612EB000A43EB010BFB6EE9
:103090005B6818464FF000014FF000024FF000034C
:1030A0008B0043EA9073820050465946FDF7E8F8DA
:1030B00002460B460E4BA3FB02135B09642101FB86
:1030C00003F3D31A1B013233094AA2FB03235B0922
:1030D00003F00F02FB6E1B6832449A6000BF7C371E
:1030E000BD46BDE8F08F00BF001001400014014054
:1030F0001F85EB51014B1868704700BF0C00002082
:1031000070B50D4D0D4C641BA4100026A64209D1CC
:103110000B4D0C4C01F03EF8641BA4100026A64297
:1031200005D170BD55F8043B98470136EEE755F8D8
:10313000043B98470136F2E71C4300081C43000893
:103140001C4300082043000802440346934200D178
:10315000704703F8011BF9E7164B73B51E68B46D91
:103160000546FCB95020019100F082F80199B06544
:10317000024620B9104B1148572100F049F8C0E928
:103180000044C0E90244C0E90444C0E90A44C0E97B
:103190000C44C0E90E44C0E91044C0E91244846103
:1031A00004774462B26D0123284602B0BDE8704046
:1031B00000F006B80C000020CC410008E3410008F4
:1031C000F0B508B9106888B10446204614F8015BD0
:1031D0000F4617F8016B1EB965B91560284605E062
:1031E000B542F6D1002BF0D114600370F0BD1C463F
:1031F0000CE015B914F8013B0E4616F8015BAB4222
:10320000F7D1002BF3D0002304F8013C1460EDE764
:103210001FB514461A46094B1B680546D8684CB1C1
:10322000074B0091CDE9013406492B4600F00EF81A
:1032300000F08EFC044B1C46F3E700BF0C0000209E
:1032400044420008514200087F4200080EB403B512
:10325000014603AB054853F8042B0068019300F0C6
:10326000E3F802B05DF804EB03B070470C000020F7
:10327000024B0146186800F053B800BF0C00002054
:1032800037B5002948D051F8043C0190002BA1F13A
:103290000404B8BFE41800F081FE204A01981368C6
:1032A000154633B96360146003B0BDE8304000F0E8
:1032B0007BBEA3420BD921686218934204BF1A68EF
:1032C0005B68636004BF521822602C60ECE71A460A
:1032D0005B680BB1A342FAD911685518A5420BD10E
:1032E000246821445418A3421160DDD11C685B6836
:1032F000536021441160D7E702D90C230360D3E760
:10330000256861198B4204BF19685B68636004BF5C
:10331000491921605460C7E703B030BD9400002014
:10332000F8B5CD1C25F0030508350C2D38BF0C254C
:10333000002D064601DBA94203D90C23336000208F
:10334000F8BD00F02BFE21490A6814469CB9204FB5
:103350003B6823B92146304600F02AFB38602946F5
:10336000304600F025FB431C23D10C23336030464C
:1033700000F01AFEE3E723685B1B17D40B2B03D97D
:1033800023601C44256004E06368A2420CBF0B600C
:103390005360304600F008FE04F10B00231D20F0BE
:1033A0000700C21ACCD01B1AA350C9E72246646892
:1033B000CCE7C41C24F00304A042E3D0211A304619
:1033C00000F0F6FA0130DDD1CFE700BF9400002015
:1033D000980000209368013B002B10B4936008DA3A
:1033E0009469A34201DB0A2903D15DF8044B00F084
:1033F000EFBA1368581C1060197008465DF8044B4A
:103400007047F8B506460F461446D518AC4201D1B0
:10341000002007E014F8011B3A463046FFF7DAFFB8
:10342000431CF3D1F8BD00002DE9F04F0D469DB0CF
:1034300014469846064618B183690BB900F0AAFCF9
:10344000894B9D421BD175686B6ED90705D4AB893A
:103450009A0502D4A86D00F03BFDAB891B0701D58E
:103460002B69EBB92946304600F004FBC0B16B6E06
:10347000DC070ED54FF0FF301DB0BDE8F08F7B4B61
:103480009D4201D1B568DFE7794B9D4208BFF568E1
:10349000DAE7AB899805EDD4A86D00F01AFDE9E7ED
:1034A0000023099320238DF82930CDF80C80302398
:1034B000DFF8C0818DF82A304FF0010923469A4683
:1034C00013F8012B0AB1252AF9D1BAEB040B0BD062
:1034D0005B46224629463046FFF793FF013000F055
:1034E000AA80099A5A4409929AF80030002B00F0F9
:1034F000A28000234FF0FF32CDE905230AF1010A33
:10350000049307938DF853301A935446052214F808
:10351000011B5848FCF764FE049AD8B9D10644BF91
:1035200020238DF85330130744BF2B238DF85330DD
:103530009AF800302A2B15D0079A544600204FF0F5
:103540000A0C214611F8013B303B092B4ED9B0B192
:10355000079214E0A0EB080309FA03F31343049362
:10356000A246D2E7039B191D1B680391002BBBBF2A
:103570005B4242F0020207930793B8BF049223789C
:103580002E2B0CD163782A2B35D1039B1A1D1B6877
:103590000392002BB8BF4FF0FF3302340593DFF8DE
:1035A000E4A0217803225046FCF71AFE40B14023E4
:1035B000A0EB0A0003FA00F0049B034301340493D8
:1035C00014F8011B2C488DF828100622FCF708FE81
:1035D00000283FD0294B1BBB039B073323F0070375
:1035E00008330393099B3B44099367E70CFB0232C2
:1035F0000C460120A5E700230134059319464FF03E
:103600000A0C204610F8012B303A092A03D9002B66
:10361000C5D00591C3E70CFB012104460123F0E767
:1036200003AB00932A46164B04A93046AFF3008043
:103630000746781CD6D16B6ED90705D4AB899A059D
:1036400002D4A86D00F045FCAB895B063FF512AFD4
:10365000099811E703AB00932A46094B04A93046A9
:1036600000F080F8E4E700BFD4420008F44200080C
:10367000B4420008804200088A42000800000000AE
:1036800003340008864200082DE9F04716469946A3
:103690008A680B69DDF820809342B8BF1346336017
:1036A00091F8432007460C460AB101333360236882
:1036B000990642BF336802333360256815F006056A
:1036C00006D104F1190AE36832689B1AAB4226DC82
:1036D00094F84320131E226818BF012392062BD4AE
:1036E00004F1430249463846C04701301ED02368E2
:1036F000E568326803F00603042B08BFAD1AA3681F
:1037000022690CBF25EAE57500259342C4BF9B1AC8
:10371000ED1800261A34B5421AD1002008E0012322
:10372000524649463846C047013003D14FF0FF307A
:10373000BDE8F0870135C6E7E1185A1C302081F852
:103740004300224494F8451082F843100233C7E73F
:103750000123224649463846C0470130E6D00136AB
:10376000D9E700002DE9FF470C469146277E0C99CA
:10377000782F80469A4604F1430207D8622F0AD870
:10378000002F00F0D880582F00F0A38004F14206EB
:1037900084F842703AE0A7F16303152BF6D801A034
:1037A00050F823F0FD370008113800088D37000865
:1037B0008D3700088D3700088D3700081138000854
:1037C0008D3700088D3700088D3700088D370008C9
:1037D0001D39000841380008FF3800088D370008FF
:1037E0008D3700083F3900088D3700084138000840
:1037F0008D3700088D370008073900080B681A1D3F
:103800001B680A6004F1420684F842300123A3E0F9
:10381000256808682E0600F104030AD505680B60C8
:10382000002D03DA2D236D4284F843305E480A23CD
:1038300019E015F0400F05680B6018BF2DB2EFE7D7
:103840000B682568181D0860280601D51D6802E070
:103850006906FBD51D8854486F2F0CBF08230A2327
:10386000002184F843106668A660002EA2BF21687C
:1038700021F0040121600DB9002E4DD01646B5FB94
:10388000F3F103FB1157C75D06F8017D2F46BB42DC
:103890000D46F4D9082B0BD12368DF0708D523691F
:1038A00061689942DEBF302306F8013C06F1FF361D
:1038B000921B2261CDF800A04B4603AA2146404648
:1038C000FFF7E2FE01304CD14FF0FF3004B0BDE80D
:1038D000F087354884F8457023680E681F0656F84F
:1038E000045B0E6014D5D90744BF43F02003236066
:1038F0001DB9236823F0200323601023B0E7236859
:1039000043F0200323607823284884F84530E3E718
:103910005E0648BFADB2E6E71646BBE70B68266811
:1039200060691D1D0D6035061B6801D5186002E039
:103930007106FBD51880002323611646BAE70B6891
:103940001A1D0A601E68626800213046FCF748FCB8
:1039500008B1801B606063682361002384F84330F2
:10396000A8E72369324649464046D0470130ABD0EC
:1039700023689B0713D4E068039B9842B8BF18469E
:10398000A4E70123324649464046D04701309BD048
:103990000135E36803995B1AAB42F2DCEBE70025E3
:1039A00004F11906F5E700BF91420008A2420008A1
:1039B00038B5064D0023044608462B60FDF760FA33
:1039C000431C02D12B6803B1236038BD3421002091
:1039D000F8B50E461446054618B183690BB900F0D8
:1039E000D9F9214B9C422BD16C68A369A360A389B0
:1039F0001A072FD523696BB323692068C01A63693E
:103A0000F6B28342374604DC2146284600F02EF900
:103A100030BBA368013BA36023685A1C22601E7060
:103A200063690130834204D0A389DB0706D50A2EDF
:103A300004D12146284600F019F988B93846F8BD66
:103A40000A4B9C4201D1AC68CFE7094B9C4208BFAE
:103A5000EC68CAE72146284600F00CF80028CBD0D5
:103A60004FF0FF37EAE700BFD4420008F4420008F5
:103A7000B4420008324B70B51D6806460C4625B1AD
:103A8000AB6913B9284600F085F92E4B9C420FD143
:103A90006C68A389B4F90C2019072CD4DD0611D465
:103AA0000923336042F04003A3814FF0FF303EE032
:103AB000254B9C4201D1AC68EBE7244B9C4208BFEC
:103AC000EC68E6E7580712D5616B41B104F1440395
:103AD000994202D03046FFF7D3FB00236363A389EA
:103AE00023F02403A3810023636023692360A38957
:103AF00043F00803A38123694BB9A38903F420731E
:103B0000B3F5007F03D02146304600F007FAA089C4
:103B1000B4F90C2010F001030AD00023A3606369FC
:103B20005B42A361236943B910F08000BAD170BD34
:103B3000810758BF6369A360F4E70020F7E700BF7F
:103B40000C000020D4420008F4420008B4420008EF
:103B500008B5062000F056FA0120FDF735F90000FF
:103B60008A892DE9F041054610070C4658D44B6868
:103B7000002B05DC0B6C002B02DC0020BDE8F08183
:103B8000E66A002EF9D0002312F480522F682B60D1
:103B900032D0606DA3895A0705D56368C01A636B7C
:103BA0000BB1236CC01A00230246E66A216A28463C
:103BB000B047431CA38906D129681D292CD82A4A5D
:103BC000CA40D60728D500226260D9042269226043
:103BD00004D5421C01D12B6803B96065616B2F606D
:103BE0000029CAD004F14403994202D02846FFF7C5
:103BF00047FB00206063C1E7216A01232846B047E4
:103C0000411CC7D12B68002BC4D01D2B01D0162B13
:103C100001D12F60B1E7A38943F04003A381ADE751
:103C20000F69002FA9D093070E6808BF4B690F607A
:103C300018BF0023A6EB07088B60B8F1000F9CDDCE
:103C4000216AA66A43463A462846B047002806DC61
:103C5000A38943F04003A3814FF0FF308EE7074470
:103C6000A8EB0008E9E700BF0100402038B50B6968
:103C700005460C4613B90025284638BD18B183699E
:103C80000BB900F087F8144B9C421BD16C68B4F957
:103C90000C30002BEFD0626ED00704D4990502D40B
:103CA000A06D00F015F928462146FFF759FF636E15
:103CB000DA070546E0D4A3899B05DDD4A06D00F0AA
:103CC00008F9D9E7054B9C4201D1AC68DFE7044B0A
:103CD0009C4208BFEC68DAE7D4420008F4420008CE
:103CE000B4420008002310B50446C0E90033C0E91F
:103CF0000433836081814366C2818361194608224F
:103D00005C30FFF721FA054B6362054BA362054B5C
:103D1000E362054B2462236310BD00BF3D400008F1
:103D20005F40000897400008BB400008014900F0D0
:103D3000AFB800BF6D3C000870B54A1E68255543FA
:103D40000E4605F17401FFF7EBFA044640B100217D
:103D5000C0E900160C30A06005F16802FFF7F4F925
:103D6000204670BD014800F0B3B800BF30210020EC
:103D7000014800F0AEB800BF30210020014800F03B
:103D8000A7B800BF2B210020014800F0A2B800BF57
:103D90002B21002010B50446FFF7F0FFA3691BB1EB
:103DA000BDE81040FFF7F0BFC4E912332365134BA1
:103DB000134A1B68A262A34204BF0123A3612046E9
:103DC00000F020F86060204600F01CF8A06020465B
:103DD00000F018F80022E06004216068FFF782FF1D
:103DE000A06801220921FFF77DFFE068022212216D
:103DF000FFF778FF0123A361D2E700BFC8410008A5
:103E00002D3D0008F8B50746FFF7ACFF1E4B1E68B6
:103E1000B36913B93046FFF7BDFF4836D6E9013420
:103E2000013B03D533680BB33668F7E7B4F90C50A0
:103E3000D5B9164BE36004F15800656600F047F809
:103E4000FFF796FFC4E90155C4E904552560A56153
:103E50000822294604F15C00FFF776F9C4E90D5504
:103E6000C4E912552046F8BD6834D9E70421384624
:103E7000FFF762FF044630600028D5D1FFF778FFD6
:103E80000C233B60EEE700BFC84100080100FFFFC4
:103E90002DE9F8430646884600F148040027D4E996
:103EA0000195B9F1010905D52468002CF7D13846F0
:103EB000BDE8F883AB89012B07D9B5F90E30013382
:103EC00003D029463046C04707436835E9E77047C5
:103ED0007047704770B50E46B1F90E10002996B0C4
:103EE00014461D4607DA00232B60B3891A0610D446
:103EF0004FF480630EE06A4600F006F90028F2DB1A
:103F0000019A02F47042A2F500535A425A412A60C3
:103F1000EEE740230020236016B070BD8B8973B597
:103F20009D0706460C4607D504F14703236023612D
:103F30000123636102B070BD01AB6A46FFF7CAFF9F
:103F4000009905463046FFF7EBF948B9B4F90C3053
:103F50009A05EFD423F0030343F00203A381E3E7C0
:103F60000D4BB362A389206043F08003A381009BC3
:103F70006361019B20615BB1B4F90E10304600F023
:103F8000D5F828B1A38923F0030343F00103A381EB
:103F9000A0890543A581CDE72D3D00080148FFF725
:103FA00097BF00BF2C2100200148FFF792BF00BF40
:103FB0002C2100201F2938B504460D4604D91623AC
:103FC00003604FF0FF3038BD426C12B152F821301F
:103FD0004BB9204600F030F82A4601462046BDE89D
:103FE000384000F017B8012B0AD0591C03D1162312
:103FF00003600120E7E7002442F82540284698475F
:104000000020E0E7024B01461868FFF7D3BF00BF6E
:104010000C00002038B5074D002304460846114621
:104020002B60FCF7C1FE431C02D12B6803B1236057
:1040300038BD00BF34210020FCF7AEBE10B50C46E1
:10404000B1F90E1000F094F80028ABBF636DA3899E
:104050001B1823F48053ACBF6365A38110BD2DE909
:10406000F0411F468B89DB0505460C46164605D5F3
:10407000B1F90E100223002200F068F8A389B4F908
:104080000E1023F48053A38132463B462846BDE8F8
:10409000F04100F017B810B50C46B1F90E1000F061
:1040A00055F8431CA38915BF606523F4805343F47E
:1040B0008053A38118BFA38110BDB1F90E1000F089
:1040C00013B8000038B5074D0446084611460022D3
:1040D0002A601A46FCF777FA431C02D12B6803B119
:1040E000236038BD3421002038B5064D0023044636
:1040F00008462B60FCF78FFE431C02D12B6803B1EE
:10410000236038BD3421002038B5074D0023044614
:10411000084611462B60FCF78AFE431C02D12B682F
:1041200003B1236038BD00BF3421002038B5064DEF
:104130000023044608462B60FCF789FE431C02D18D
:104140002B6803B1236038BD3421002038B5074DFA
:1041500004460846114600222A601A46FCF782FEF1
:10416000431C02D12B6803B1236038BD34210020E9
:1041700038B5074D04460846114600222A601A4603
:10418000FCF72CFE431C02D12B6803B1236038BD21
:1041900034210020F8B500BFF8BC08BC9E4670472B
:0C41A000F8B500BFF8BC08BC9E46704794
:1041AC000A000000000000000000000001020304EF
:1041BC00060708090000000001020304100000209B
:1041CC005245454E54206D616C6C6F632073756362
:1041DC00636565646564002F6275696C642F676E36
:1041EC00752D746F6F6C732D666F722D73746D33C8
:1041FC00325F392D323032302D71322D7570646151
:10420C0074652E32303230313030312D313632311E
:10421C002F7372632F6E65776C69622F6E65776C86
:10422C0069622F6C6962632F737472696E672F7386
:10423C007472746F6B2E63002C2066756E637469D8
:10424C006F6E3A2000617373657274696F6E202211
:10425C00257322206661696C65643A2066696C6519
:10426C0020222573222C206C696E65202564257311
:10427C0025730A00232D302B2000686C4C006566DA
:10428C00674546470030313233343536373839419B
:10429C0042434445460030313233343536373839B1
:1042AC0061626364656600000000000000000000AD
:1042BC0000000000000000000000000000000000F2
:1042CC0000000000000000000000000000000000E2
:1042DC0000000000000000000000000000000000D2
:1042EC0000000000000000000000000000000000C2
:1042FC0000000000000000000000000000000000B2
:08430C000000000000000000A9
:084314009CBFFF7F01000000C7
:04431C00C5010008CF
:04432000A1010008EF
:104324000024F40010000000010000001000002030
:1043340000000000D4420008F4420008B44200081F
:104344000000000000000000000000000000000069
:104354000000000000000000000000000000000059
:104364000000000000000000000000000000000049
:104374000000000000000000000000000000000039
:104384000000000000000000000000000000000029
:0400000508000F11CF
:00000001FF
