:020000040800F2
:1000000000000220150C0008890B00088F0B000867
:10001000950B00089B0B0008A10B000800000000D6
:10002000000000000000000000000000A70B000816
:10003000B50B000800000000C30B0008D10B00083E
:10004000650C0008650C0008650C0008650C0008CC
:10005000650C0008650C0008650C0008650C0008BC
:10006000650C0008650C0008650C0008650C0008AC
:10007000650C0008650C0008650C0008650C00089C
:10008000650C0008650C0008650C00080000000005
:10009000000000000000000000000000650C0008E7
:1000A000650C0008650C0008650C0008650C00086C
:1000B000650C0008650C0008650C0008650C00085C
:1000C000650C0008650C0008650C0008650C00084C
:1000D000650C0008650C0008DD0B0008000000003E
:1000E000650C0008650C0008650C000800000000A5
:1000F000000000000000000000000000650C000887
:1001000000000000650C0008650C0008650C000884
:1001100000000000000000000000000000000000DF
:10012000650C0008650C0008650C0008650C0008EB
:10013000650C000800000000000000000000000046
:10014000000000000000000000000000650C000836
:10015000650C0008650C0008650C0008650C0008BB
:10016000650C0008650C000800000000000000009D
:10017000000000000000000000000000000000007F
:1001800000000000650C00080000000000000000F6
:08019000650C0008650C000875
:1001980010B5054C237833B9044B13B10448AFF3B9
:1001A80000800123237010BD0C0000200000000017
:1001B8001832000808B5034B1BB103490348AFF3D5
:1001C800008008BD00000000100000201832000860
:1001D80053B94AB9002908BF00281CBF4FF0FF31A6
:1001E8004FF0FF3000F06EB9ADF1080C6DE904CEA8
:1001F80000F006F8DDF804E0DDE9022304B07047FA
:100208002DE9F047089D04468C46002B40F083807A
:100218008A42174647D9B2FA82F242B1C2F12000A7
:1002280024FA00F09140974040EA010C94404FEACC
:100238001748230CBCFBF8F61FFA87FE08FB16C10B
:1002480043EA014306FB0EF1994209D9FB1806F16E
:10025800FF3080F01981994240F21681023E3B44FA
:100268005B1AA4B2B3FBF8F008FB103344EA03446A
:1002780000FB0EFEA64509D93C1900F1FF3380F0BA
:100288000581A64540F2028102383C4440EA064016
:10029800A4EB0E0400261DB1D4400023C5E9004399
:1002A8003146BDE8F08702B9FFDEB2FA82F2002AD1
:1002B80050D1CB1B4FEA174E1FFA87F80126B3FB24
:1002C800FEFC210C0EFB1C3341EA034108FB0CF336
:1002D8008B4207D979180CF1FF3002D28B4200F219
:1002E800E9808446C91AA3B2B1FBFEF00EFB1011D7
:1002F80043EA014408FB00F8A04507D93C1900F17E
:10030800FF3302D2A04500F2D9801846A4EB0804B6
:1003180040EA0C40BFE78B4209D9002D00F0B180BC
:100328000026C5E9000130463146BDE8F087B3FA3A
:1003380083F6002E4AD18B4202D3824200F2B88063
:10034800841A61EB030101208C46002DA8D0C5E971
:10035800004CA5E7C2F1200320FA03F6974001FA02
:1003680002F04FEA174ED9403043030CB1FBFEF6BA
:100378001FFA87F80EFB161143EA014306FB08F142
:10038800994204FA02F409D9FB1806F1FF3C80F0FF
:100398008D80994240F28A80023E3B445B1A81B2CA
:1003A800B3FBFEF00EFB103341EA034100FB08F3F8
:1003B8008B4207D9791800F1FF3C73D28B4271D96F
:1003C80002383944CB1A40EA064678E7C6F1200CD1
:1003D80003FA06F422FA0CF31C4320FA0CF701FA8C
:1003E80006F34FEA144E21FA0CF11F433B0CB1FB04
:1003F800FEF91FFA84F80EFB191143EA014109FBC3
:1004080008FA8A4502FA06F200FA06F308D96118D2
:1004180009F1FF3048D28A4546D9A9F10209214499
:10042800A1EB0A01BFB2B1FBFEF00EFB101147EAC7
:10043800014700FB08F8B84507D9E71900F1FF3173
:100448002ED2B8452CD90238274440EA0940A7EBF8
:100458000807A0FB02894F45C64649461AD317D05C
:100468005DB1B3EB0E0267EB010707FA0CFCF24033
:100478004CEA0202F740C5E9002700263146BDE8EC
:10048800F0872E4628460BE70646E9E61846FDE6BD
:100498004345E5D2B8EB020E69EB04010138DFE70A
:1004A8000846D2E760468DE78146B9E7664675E7B4
:1004B80030464AE7ACF1020C394413E702383C44B1
:1004C80024E700BF704700BF80B582B000AF7860F6
:1004D800064B1B78184600F027F901220349044807
:1004E80001F081FF00BF0837BD4680BD3000002005
:1004F8003400002080B500AF00F0B2FB00F016F821
:1005080000F09CF800F070F800F0F0F801220449BF
:10051800044801F068FF044800F070F9FBE700BFE9
:10052800300000203400002000A0000880B594B0FE
:1005380000AF07F1200330220021184602F060FEC8
:1005480007F10C0300221A605A609A60DA601A6197
:100558000023BB60224B1B6C214A43F08053136479
:100568001F4B1B6C03F08053BB60BB6800237B6090
:100578001C4B1B681B4A43F440431360194B1B6810
:1005880003F440437B607B6802233B620123FB62E8
:1005980010233B630023BB6307F12003184601F0D7
:1005A800FBF90346002B01D000F09AF80F23FB60FB
:1005B80000233B6100237B610023BB610023FB61B7
:1005C80007F10C030021184601F05EFC0346002BDE
:1005D80001D000F085F800BF5037BD4680BD00BF90
:1005E800003802400070004080B500AF114B124A3D
:1005F8001A60104B4FF4E1325A600E4B00229A6099
:100608000C4B0022DA600B4B00221A61094B0C22BA
:100618005A61084B00229A61064B0022DA610548AC
:1006280001F002FE0346002B01D000F059F800BF8C
:1006380080BD00BF340000200044004080B588B071
:1006480000AF07F10C0300221A605A609A60DA6062
:100658001A610023BB60204B1B6B1F4A43F0010348
:1006680013631D4B1B6B03F00103BB60BB680023C6
:100678007B60194B1B6B184A43F008031363164B36
:100688001B6B03F008037B607B6800233B60124B05
:100698001B6B114A43F0020313630F4B1B6B03F0F0
:1006A80002033B603B6800224FF480510B4801F085
:1006B80059F94FF48053FB6001233B6100237B61B0
:1006C8000023BB6107F10C031946044800F0C6FF7C
:1006D80000BF2037BD4680BD00380240000C0240F4
:1006E80080B400AF72B600BFFEE7000080B500AF6F
:1006F8000C4B03F5BB53103300221A60094B03F56A
:10070800BB53143300221A80064B03F5BB53163330
:1007180000221A7041F270720021024802F070FD46
:1007280000BF80BD7C00002080B582B000AF0346CA
:10073800FB712E4B03F5BB5316331B78002B23D1CB
:10074800FB790A2B12D0294B03F5BB5310331A68D7
:1007580013469B0013445B001A46FB79303B1A444E
:10076800224B03F5BB5310331A603AE04FF4FA6397
:1007780001221F491F4801F0A4FD1C4B03F5BB5380
:10078800163301221A702CE0184B03F5BB531633AD
:100798001B78012B25D1154B03F5BB5314331A884D
:1007A800531C99B2114B03F5BB53143319801146EE
:1007B8000E4AFB795354104B1B8801339AB20E4BE7
:1007C8001A800D4B1B881A46084B03F5BB53103390
:1007D8001B689A4205D1054B03F5BB531733012219
:1007E8001A7000BF0837BD4680BD00BF7C000020DE
:1007F80030320008340000202C00002080B582B080
:1008080000AF7860174B03F5BB5317331B78012BE8
:1008180023D1154B1B68DBB21946786800F09CF8A9
:10082800104B03F5BB5310331B681A460223796833
:100838000C4800F0C5F80B4B03F5BB5317330022E7
:100848001A7041F270720021064802F0D9FC0122A8
:100858004FF48051054801F085F800BF0837BD46C0
:1008680080BD00BF7C00002028000020000C024052
:1008780080B485B000AF78600023FB607B68B3F17B
:10088800006F06D37B682C4A934202D20023FB6098
:100898004BE07B68284A934206D37B68274A9342F9
:1008A80002D20123FB6040E07B68244A934206D3CE
:1008B8007B68234A934202D20223FB6035E07B68BF
:1008C8001F4A934206D37B681E4A934202D80323E9
:1008D800FB602AE07B681B4A934206D97B681A4A68
:1008E800934202D80423FB601FE07B68164A9342B8
:1008F80006D97B68154A934202D80523FB6014E0A9
:100908007B68124A934206D97B68114A934202D8FF
:100918000623FB6009E07B680D4A934205D97B6892
:100928000C4A934201D20723FB60FB681846143730
:10093800BD465DF8047B7047004000080080000851
:1009480000C00008FFFF0008FFFF0108FFFF0308C1
:10095800FFFF0508FFFF070880B58CB000AF78607F
:100968000B46FB707868FFF783FFF862FB789B0003
:100978001A467B681344BB62B86AFFF779FF78624E
:1009880000F0D8FB01237B6102233B6200233B611B
:100998007868FFF76DFF0346BB617A6AFB6AD31A72
:1009A8000133FB6107F10C0207F1100311461846E9
:1009B80000F032FD00F0E0FB00BF3037BD4680BDDF
:1009C80080B588B000AFF860B9607A60FB70BB682A
:1009D800FB6100F0AFFBFB78022B39D0022B51DC16
:1009E800002B02D0012B19D04CE00023FB7610E03D
:1009F800FB7EFA6813441B78DAB24FF00003F969FA
:100A0800002000F043FBFB690133FB61FB7E0133EF
:100A1800FB76FB7E7A689A42EAD833E000233B8370
:100A280011E03B8B5B00FA6813441B889AB24FF0C5
:100A38000003F969012000F029FBFB690233FB611F
:100A48003B8B01333B833B8B7A689A42E9D819E0A8
:100A580000237B6111E07B699B00FA6813441B68E3
:100A68001A464FF00003F969022000F00FFBFB69FA
:100A78000433FB617B6901337B617A697B689A4245
:100A8800E9D300BF00F078FB00BF2037BD4680BD2A
:100A980080B483B000AF00237B60104B5B6C0F4ABF
:100AA80043F4804353640D4B5B6C03F480437B60D9
:100AB8007B6800233B60094B1B6C084A43F080535A
:100AC8001364064B1B6C03F080533B603B6800BF0C
:100AD8000C37BD465DF8047B704700BF0038024004
:100AE80080B58AB000AF786007F1140300221A605D
:100AF8005A609A60DA601A617B681B681D4A9342E3
:100B080033D100233B611C4B1B6C1B4A43F400335D
:100B18001364194B1B6C03F400333B613B690023DE
:100B2800FB60154B1B6B144A43F001031363124B14
:100B38001B6B03F00103FB60FB680C237B61022342
:100B4800BB610023FB6103233B6207237B6207F140
:100B580014031946094800F081FD002201212620CE
:100B680000F0CBF9262000F0E4F900BF2837BD4695
:100B780080BD00BF00440040003802400000024031
:100B880080B400AFFEE780B400AFFEE780B400AFEA
:100B9800FEE780B400AFFEE780B400AFFEE780B4A4
:100BA80000AF00BFBD465DF8047B704780B400AF5E
:100BB80000BFBD465DF8047B704780B400AF00BF3E
:100BC800BD465DF8047B704780B500AF00F09AF829
:100BD80000BF80BD80B500AF024801F035FC00BF02
:100BE80080BD00BF3400002080B400AF064BD3F8AE
:100BF8008830054A43F47003C2F8883000BFBD4608
:100C08005DF8047B704700BF00ED00E0DFF834D0EA
:100C18000D480E490E4A002302E0D458C45004334C
:100C2800C4188C42F9D30B4A0B4C002301E0136023
:100C38000432A242FBD3FFF7D7FF02F0BDFAFFF759
:100C480059FC704700000220000000200C00002022
:100C58005C3200080C00002018180020FEE7000095
:100C680080B500AF0E4B1B680D4A43F40073136048
:100C78000B4B1B680A4A43F480631360084B1B68DC
:100C8800074A43F480731360032000F02BF90F2008
:100C980000F008F8FFF7FCFE0023184680BD00BFEF
:100CA800003C024080B582B000AF7860124B1A68F1
:100CB800124B1B7819464FF47A73B3FBF1F3B2FB6E
:100CC800F3F3184600F043F90346002B01D0012343
:100CD8000EE07B680F2B0AD8002279684FF0FF30AE
:100CE80000F00BF9064A7B681360002300E001233B
:100CF80018460837BD4680BD0000002008000020C7
:100D08000400002080B400AF064B1B781A46064B3F
:100D18001B681344044A136000BFBD465DF8047B9A
:100D2800704700BF08000020F417002080B400AF0F
:100D3800034B1B681846BD465DF8047B704700BF2F
:100D4800F417002080B485B000AF78607B6803F0AA
:100D58000703FB600C4BDB68BB60BA684FF6FF0308
:100D68001340BB60FB681A02BB68134343F0BF63C0
:100D780043F40033BB60044ABB68D36000BF143738
:100D8800BD465DF8047B704700ED00E080B400AF1D
:100D9800044BDB681B0A03F007031846BD465DF8E1
:100DA800047B704700ED00E080B483B000AF0346D9
:100DB800FB7197F90730002B0BDBFB7903F01F025F
:100DC800074997F907305B09012000FA02F241F858
:100DD800232000BF0C37BD465DF8047B704700BF79
:100DE80000E100E080B483B000AF03463960FB71D6
:100DF80097F90730002B0ADB3B68DAB20C4997F900
:100E080007301201D2B20B4483F800230AE03B6892
:100E1800DAB20849FB7903F00F03043B1201D2B29E
:100E28000B441A7600BF0C37BD465DF8047B70474B
:100E380000E100E000ED00E080B489B000AFF860A8
:100E4800B9607A60FB6803F00703FB61FB69C3F1D3
:100E58000703042B28BF0423BB61FB690433062B5B
:100E680002D9FB69033B00E000237B614FF0FF32AE
:100E7800BB6902FA03F3DA43BB681A407B699A40FC
:100E88004FF0FF317B6901FA03F3D9437B680B40CC
:100E9800134318462437BD465DF8047B70470000AD
:100EA80080B582B000AF78607B68013BB3F1807F8A
:100EB80001D301230FE00A4A7B68013B53600F21ED
:100EC8004FF0FF30FFF78EFF054B00229A60044B6E
:100ED80007221A60002318460837BD4680BD00BFA8
:100EE80010E000E080B582B000AF78607868FFF766
:100EF80029FF00BF0837BD4680BD80B586B000AF6A
:100F08000346B9607A60FB7300237B61FFF73EFFFD
:100F180078617A68B9687869FFF78EFF024697F9B1
:100F28000F3011461846FFF75DFF00BF1837BD4662
:100F380080BD80B582B000AF0346FB7197F90730DA
:100F48001846FFF731FF00BF0837BD4680BD80B5A2
:100F580082B000AF78607868FFF7A2FF03461846B2
:100F68000837BD4680BD80B584B000AF78607B6827
:100F78009B6DFB60FFF7DAFEB8607B6893F835304D
:100F8800DBB2022B08D07B6880225A657B6800227E
:100F980083F83420012352E07B681B681A687B6859
:100FA8001B6822F016021A607B681B685A697B6806
:100FB8001B6822F080025A617B681B6C002B03D1EE
:100FC8007B689B6C002B07D07B681B681A687B6862
:100FD8001B6822F008021A607B681B681A687B6825
:100FE8001B6822F001021A6013E0FFF79FFE024619
:100FF800BB68D31A052B0CD97B6820225A657B68FD
:10100800032283F835207B68002283F834200323E9
:1010180015E07B681B681B6803F00103002BE4D113
:101028007B68DB6D3F229A40FB689A607B680122EF
:1010380083F835207B68002283F834200023184683
:101048001037BD4680BD80B483B000AF78607B6840
:1010580093F83530DBB2022B04D07B6880225A65C6
:1010680001230CE07B68052283F835207B681B6828
:101078001A687B681B6822F001021A600023184670
:101088000C37BD465DF8047B7047000080B586B01C
:1010980000AFF860B960C7E900230123FB75234B53
:1010A8001B7E012B01D102233BE0204B01221A7643
:1010B8004CF2503000F070F80346FB75FB7D002BB6
:1010C8002BD1FB68002B05D13B781946B86800F096
:1010D8001BF916E0FB68012B05D13B881946B86857
:1010E80000F0EEF80DE0FB68022B05D13B681946CD
:1010F800B86800F0C3F804E0D7E90023B86800F046
:101108008BF84CF2503000F047F80346FB75084B5B
:101118001B69074A23F001031361044B00221A7666
:10112800FB7D18461837BD4680BD00BFF817002064
:10113800003C024080B483B000AF0023FB710B4B2E
:101148001B69002B0BDA094B094A5A60074B094AFD
:101158005A60064B1B69002B01DA0123FB71FB79EE
:1011680018460C37BD465DF8047B7047003C0240CA
:1011780023016745AB89EFCD80B400AF054B1B69F0
:10118800044A43F00043136100231846BD465DF846
:10119800047B7047003C024080B584B000AF7860A3
:1011A8000023FB601A4B0022DA61FFF7BFFDF860ED
:1011B80010E07B68B3F1FF3F0CD07B68002B07D0B1
:1011C800FFF7B4FD0246FB68D31A7A689A4201D247
:1011D800032319E00F4BDB6803F48033002BE8D1BD
:1011E8000C4BDB6803F00103002B02D0094B0122F2
:1011F800DA60084BDB6803F4F973002B03D000F0C6
:10120800A5F8012300E0002318461037BD4680BD2D
:10121800F8170020003C024080B485B000AFF860A9
:10122800C7E90023144B1B69134A23F44073136165
:10123800114B1B69104A43F4407313610E4B1B6931
:101248000D4A43F001031361FB683A681A60BFF363
:101258006F8F00BFD7E900014FF000024FF0000385
:101268000A000023F968043113460B6000BF1437E5
:10127800BD465DF8047B7047003C024080B483B0F3
:1012880000AF786039600D4B1B690C4A23F440733A
:1012980013610A4B1B69094A43F400731361074B36
:1012A8001B69064A43F0010313617B683A681A60B8
:1012B80000BF0C37BD465DF8047B7047003C024018
:1012C80080B483B000AF78600B467B800D4B1B6900
:1012D8000C4A23F4407313610A4B1B69094A43F40F
:1012E80080731361074B1B69064A43F001031361BE
:1012F8007B687A881A8000BF0C37BD465DF8047B8E
:10130800704700BF003C024080B483B000AF7860F3
:101318000B46FB700C4B1B690B4A23F4407313619B
:10132800094B094A1B691361074B1B69064A43F0BD
:10133800010313617B68FA781A7000BF0C37BD4649
:101348005DF8047B704700BF003C024080B400AFEA
:101358002F4BDB6803F01003002B08D02D4BDB6903
:1013680043F010032B4AD361294B1022DA60284B33
:10137800DB6803F02003002B08D0264BDB6943F021
:101388000803244AD361224B2022DA60204BDB6811
:1013980003F04003002B08D01E4BDB6943F0040325
:1013A8001C4AD3611A4B4022DA60194BDB6803F000
:1013B8008003002B08D0174BDB6943F00203154A62
:1013C800D361134B8022DA60114BDB6803F480731E
:1013D800002B09D00F4BDB6943F001030D4AD361A1
:1013E8000B4B4FF48072DA60094BDB6803F00203A1
:1013F800002B08D0074BDB6943F02003054AD36173
:10140800034B0222DA6000BFBD465DF8047B7047DB
:10141800003C0240F817002080B584B000AF786027
:1014280039600123FB730023BB60314B1B7E012B0A
:1014380001D1022358E02E4B01221A764CF250308B
:10144800FFF7AAFE0346FB73FB7B002B48D13B68E2
:101458004FF0FF321A607B681B68012B15D17B683F
:101468001B69DAB27B685B681946104600F044F8DD
:101478004CF25030FFF790FE0346FB731D4B1B697F
:101488001C4A23F00403136128E07B689B68BB6057
:101498001CE07B681B69DBB21946B86800F050F89D
:1014A8004CF25030FFF778FE0346FB73114B1B6973
:1014B800104A23F0FA031361FB7B002B03D03B682F
:1014C800BA681A600AE0BB680133BB607B68DA68F7
:1014D8007B689B681344BA689A42DAD300F078F8BC
:1014E800034B00221A76FB7B18461037BD4680BD99
:1014F800F8170020003C024080B483B000AF0346D8
:101508003960FB710D4B1B690C4A23F4407313615E
:101518000A4B1B69094A43F004031361074B1A6914
:10152800FB791B021343054A43F48033136100BF60
:101538000C37BD465DF8047B704700BF003C024095
:1015480080B485B000AF78600B46FB700023FB6069
:10155800FB78002B02D10023FB6010E0FB78012B05
:1015680003D14FF48073FB6009E0FB78022B03D1B1
:101578004FF40073FB6002E04FF44073FB60134BC1
:101588001B69124A23F440731361104B1A690F49FF
:10159800FB6813430B610D4B1B690C4A23F0F803DE
:1015A80013610A4B1A697B68DB001343074A43F04F
:1015B80002031361054B1B69044A43F4803313612A
:1015C80000BF1437BD465DF8047B7047003C0240FD
:1015D80080B400AF204B1B6803F40073002B17D0B6
:1015E8001D4B1B681C4A23F4007313601A4B1B68BD
:1015F800194A43F400631360174B1B68164A23F417
:1016080000631360144B1B68134A43F400731360A0
:10161800114B1B6803F48063002B17D00E4B1B681B
:101628000D4A23F4806313600B4B1B680A4A43F48A
:1016380080531360084B1B68074A23F480531360D8
:10164800054B1B68044A43F48063136000BFBD4622
:101658005DF8047B704700BF003C024080B489B04D
:1016680000AF7860396000237B6100233B61002371
:10167800BB610023FB6159E10122FB6902FA03F314
:101688007B613B681B687A6913403B613A697B69F7
:101698009A4240F048813B685B6803F00303012BE2
:1016A80005D03B685B6803F00303022B30D17B68ED
:1016B8009B68BB61FB695B00032202FA03F3DB430F
:1016C800BA691340BB613B68DA68FB695B0002FAE0
:1016D80003F3BA691343BB617B68BA699A607B6894
:1016E8005B68BB610122FB6902FA03F3DB43BA6959
:1016F8001340BB613B685B681B0903F00102FB698F
:1017080002FA03F3BA691343BB617B68BA695A608A
:101718003B685B6803F00303032B17D07B68DB6827
:10172800BB61FB695B00032202FA03F3DB43BA697E
:101738001340BB613B689A68FB695B0002FA03F3DC
:10174800BA691343BB617B68BA69DA603B685B6856
:1017580003F00303022B23D1FB69DA087B68083204
:1017680053F82230BB61FB6903F007039B000F228B
:1017780002FA03F3DB43BA691340BB613B681A6999
:10178800FB6903F007039B0002FA03F3BA691343EA
:10179800BB61FB69DA087B680832B96943F8221033
:1017A8007B681B68BB61FB695B00032202FA03F3D9
:1017B800DB43BA691340BB613B685B6803F0030213
:1017C800FB695B0002FA03F3BA691343BB617B68E8
:1017D800BA691A603B685B6803F44033002B00F079
:1017E800A2800023FB60574B5B6C564A43F480434E
:1017F8005364544B5B6C03F48043FB60FB68524AB0
:10180800FB699B08023352F82330BB61FB6903F084
:1018180003039B000F2202FA03F3DB43BA69134068
:10182800BB617B68494A934219D07B68484A934216
:1018380013D07B68474A93420DD07B68464A93424F
:1018480007D07B68454A934201D1042308E0072367
:1018580006E0032304E0022302E0012300E0002362
:10186800FA6902F0030292009340BA691343BB611C
:101878003549FB699B080233BA6941F82320384B84
:101888001B68BB613B69DB43BA691340BB613B68BA
:101898005B6803F48033002B03D0BA693B691343B8
:1018A800BB612F4ABB6913602D4B5B68BB613B6909
:1018B800DB43BA691340BB613B685B6803F40033E0
:1018C800002B03D0BA693B691343BB61244ABB6947
:1018D8005360234B9B68BB613B69DB43BA69134088
:1018E800BB613B685B6803F48013002B03D0BA69C3
:1018F8003B691343BB611A4ABB699360184BDB68A9
:10190800BB613B69DB43BA691340BB613B685B68F9
:1019180003F40013002B03D0BA693B691343BB617E
:101928000F4ABB69D360FB690133FB61FB690F2B6D
:101938007FF6A2AE00BF00BF2437BD465DF8047B2A
:10194800704700BF003802400038014000000240E4
:101958000004024000080240000C0240001002404F
:10196800003C014080B483B000AF78600B467B80B8
:1019780013467B707B78002B03D07A887B689A614A
:1019880003E07B881A047B689A6100BF0C37BD4668
:101998005DF8047B7047000080B586B000AF7860C2
:1019A8007B68002B01D1012364E27B681B6803F08C
:1019B8000103002B75D0A34B9B6803F00C03042B89
:1019C8000CD0A04B9B6803F00C03082B12D19D4B45
:1019D8005B6803F48003B3F5800F0BD1994B1B6848
:1019E80003F40033002B5BD07B685B68002B57D176
:1019F80001233FE27B685B68B3F5803F06D1914BDA
:101A08001B68904A43F4803313601DE07B685B6871
:101A1800B3F5A02F0CD18B4B1B688A4A43F4802363
:101A28001360884B1B68874A43F4803313600BE0CC
:101A3800844B1B68834A23F480331360814B1B68F3
:101A4800804A23F4802313607B685B68002B13D0E3
:101A5800FFF76CF9386108E0FFF768F902463B695F
:101A6800D31A642B01D9032304E2764B1B6803F4D1
:101A78000033002BF0D014E0FFF758F9386108E084
:101A8800FFF754F902463B69D31A642B01D90323A3
:101A9800F0E16C4B1B6803F40033002BF0D100E03D
:101AA80000BF7B681B6803F00203002B63D0654B03
:101AB8009B6803F00C03002B0BD0624B9B6803F070
:101AC8000C03082B1CD15F4B5B6803F48003002BCD
:101AD80016D15C4B1B6803F00203002B05D07B6812
:101AE800DB68012B01D00123C4E1564B1B6823F0AE
:101AF800F8027B681B69DB00524913430B603AE02C
:101B08007B68DB68002B20D04F4B01221A60FFF75F
:101B18000DF9386108E0FFF709F902463B69D31A65
:101B2800022B01D90323A5E1464B1B6803F00203EE
:101B3800002BF0D0434B1B6823F0F8027B681B692D
:101B4800DB00404913430B6015E03F4B00221A604D
:101B5800FFF7ECF8386108E0FFF7E8F802463B6960
:101B6800D31A022B01D9032384E1364B1B6803F0F7
:101B78000203002BF0D17B681B6803F00803002BDD
:101B880030D07B685B69002B16D0304B01221A607D
:101B9800FFF7CCF8386108E0FFF7C8F802463B6960
:101BA800D31A022B01D9032364E1264B5B6F03F0A0
:101BB8000203002BF0D015E0244B00221A60FFF737
:101BC800B5F8386108E0FFF7B1F802463B69D31A67
:101BD800022B01D903234DE11A4B5B6F03F002037B
:101BE800002BF0D17B681B6803F00403002B00F086
:101BF800A0800023FB75134B1B6C03F08053002B54
:101C08000FD10023BB600F4B1B6C0E4A43F080536F
:101C180013640C4B1B6C03F08053BB60BB6801233F
:101C2800FB750B4B1B6803F48073002B21D1084B09
:101C38001B68074A43F480731360FFF777F838612D
:101C480011E000BF0038024000004742800E4742C2
:101C580000700040FFF76AF802463B69D31A022B6E
:101C680001D9032306E1854B1B6803F48073002B1D
:101C7800F0D07B689B68012B06D1814B1B6F804A93
:101C880043F0010313671CE07B689B68052B0CD1AC
:101C98007B4B1B6F7A4A43F004031367784B1B6F27
:101CA800774A43F0010313670BE0754B1B6F744AC7
:101CB80023F001031367724B1B6F714A23F004036F
:101CC80013677B689B68002B15D0FFF72FF83861E6
:101CD8000AE0FFF72BF802463B69D31A41F2883233
:101CE800934201D90323C5E0654B1B6F03F0020340
:101CF800002BEED014E0FFF719F838610AE0FFF77F
:101D080015F802463B69D31A41F28832934201D949
:101D18000323AFE05A4B1B6F03F00203002BEED1F5
:101D2800FB7D012B05D1564B1B6C554A23F0805384
:101D380013647B689B69002B00F09B80504B9B6869
:101D480003F00C03082B5CD07B689B69022B41D104
:101D58004C4B00221A60FEF7E9FF386108E0FEF7F5
:101D6800E5FF02463B69D31A022B01D9032381E020
:101D7800434B1B6803F00073002BF0D17B68DA69D2
:101D88007B681B6A1A437B685B6A9B011A437B6802
:101D98009B6A5B08013B1B041A437B68DB6A1B06D2
:101DA800374913434B60374B01221A60FEF7BEFFD9
:101DB800386108E0FEF7BAFF02463B69D31A022BE6
:101DC80001D9032356E02E4B1B6803F00073002B48
:101DD800F0D04EE02B4B00221A60FEF7A7FF3861C7
:101DE80008E0FEF7A3FF02463B69D31A022B01D98C
:101DF80003233FE0224B1B6803F00073002BF0D154
:101E080037E07B689B69012B01D1012332E01C4B31
:101E18005B68FB607B689B69012B28D0FB6803F437
:101E280080027B68DB699A4221D1FB6803F03F029C
:101E38007B681B6A9A421AD1FA6847F6C073134046
:101E48007A68526A9201934211D1FB6803F44032D6
:101E58007B689B6A5B08013B1B049A4207D1FB68BD
:101E680003F070627B68DB6A1B069A4201D001238B
:101E780000E0002318461837BD4680BD00700040BA
:101E8800003802406000474280B584B000AF7860F7
:101E980039607B68002B01D10123CCE0684B1B68BB
:101EA80003F007033A689A420CD9654B3A68D2B2F4
:101EB8001A70634B1B6803F007033A689A4201D013
:101EC8000123B8E07B681B6803F00203002B20D0D5
:101ED8007B681B6803F00403002B05D0594B9B68F3
:101EE800584A43F4E05393607B681B6803F0080387
:101EF800002B05D0534B9B68524A43F460439360D0
:101F0800504B9B6823F0F0027B689B684D49134354
:101F18008B607B681B6803F00103002B44D07B684F
:101F28005B68012B07D1474B1B6803F40033002B78
:101F380019D101237FE07B685B68022B03D07B68A3
:101F48005B68032B07D13F4B1B6803F00073002B22
:101F580009D101236FE03B4B1B6803F00203002B00
:101F680001D1012367E0374B9B6823F003027B68AC
:101F78005B68344913438B60FEF7D8FEF8600AE0CB
:101F8800FEF7D4FE0246FB68D31A41F28832934228
:101F980001D903234FE02B4B9B6803F00C027B68AD
:101FA8005B689B009A42EBD1254B1B6803F0070343
:101FB8003A689A420CD2224B3A68D2B21A70204B35
:101FC8001B6803F007033A689A4201D0012332E004
:101FD8007B681B6803F00403002B08D0194B9B682F
:101FE80023F4E0527B68DB68164913438B607B68F7
:101FF8001B6803F00803002B09D0124B9B6823F4DD
:1020080060427B681B69DB000E4913438B6000F05C
:1020180021F802460B4B9B681B0903F00F030A4982
:10202800CB5C22FA03F3094A1360094B1B68184674
:10203800FEF738FE002318461037BD4680BD00BFA6
:10204800003C024000380240343200080000002002
:1020580004000020B0B584B000AF002179600021F1
:10206800F960002139600021B9605249896801F09E
:102078000C0108290DD0082900F29480002902D00B
:10208800042903D08EE04C4BBB608EE04B4BBB6009
:102098008BE04849496801F03F0179604549496842
:1020A80001F48001002924D0424949688909084679
:1020B8004FF0000140F2FF144FF0000500EA04025F
:1020C80001EA05033D4901FB03F0002101FB02F190
:1020D80044183A49A2FB0101631819467B681A465D
:1020E8004FF00003FEF774F802460B461346FB60F8
:1020F8004AE0304B5B689B091A464FF0000340F2F8
:10210800FF104FF0000102EA000403EA010520462F
:1021180029464FF000024FF000034B0143EAD06319
:10212800420110461946001B61EB05014FF0000201
:102138004FF000038B0143EA90638201121A63EBAC
:1021480001034FF000004FF00001D90041EA52713D
:10215800D00002460B46121945EB03034FF000006E
:102168004FF00001990241EA9251900202460B4653
:10217800104619467B681A464FF00003FEF728F808
:1021880002460B461346FB600A4B5B681B0C03F0C8
:10219800030301335B003B60FA683B68B2FBF3F36F
:1021A800BB6002E0044BBB6000BFBB681846103739
:1021B800BD46B0BD003802400024F40040787D01DF
:1021C80080B400AF034B1B681846BD465DF8047B1E
:1021D800704700BF0000002080B500AFFFF7F0FF98
:1021E8000246054B9B689B0A03F007030349CB5C37
:1021F80022FA03F3184680BD003802404432000832
:1022080080B500AFFFF7DCFF0246054B9B685B0B10
:1022180003F007030349CB5C22FA03F3184680BD99
:10222800003802404432000880B582B000AF7860C0
:102238007B68002B01D101233FE07B6893F83D3098
:10224800DBB2002B06D17B68002283F83C2078683B
:10225800FEF746FC7B68242283F83D207B681B68D8
:10226800DA687B681B6822F40052DA60786800F04C
:10227800DBFD7B681B681A697B681B6822F4904247
:102288001A617B681B685A697B681B6822F02A02FE
:102298005A617B681B68DA687B681B6842F40052E5
:1022A800DA607B6800221A647B68202283F83D206C
:1022B8007B68202283F83E20002318460837BD4655
:1022C80080BD80B58AB002AFF860B9603B60134644
:1022D800FB8000237B61FB6893F83D30DBB2202B49
:1022E8007CD1BB68002B02D0FB88002B01D10123D5
:1022F80075E0FB6893F83C30012B01D102236EE0B6
:10230800FB68012283F83C20FB6800221A64FB6802
:10231800212283F83D20FEF709FD7861FB68FA88E1
:102328009A84FB68FA88DA84FB689B68B3F5805F57
:1023380008D1FB681B69002B04D10023FB61BB6833
:10234800BB6103E0BB68FB610023BB61FB68002243
:1023580083F83C202AE03B6800937B6900228021B7
:10236800F86800F01FFB0346002B01D0032336E07A
:10237800FB69002B0BD1BB691B881A46FB681B68DD
:10238800C2F308025A60BB690233BB6107E0FB690C
:102398001A78FB681B685A60FB690133FB61FB68AC
:1023A800DB8C9BB2013B9AB2FB68DA84FB68DB8C5E
:1023B8009BB2002BCFD13B6800937B690022402160
:1023C800F86800F0EFFA0346002B01D0032306E07B
:1023D800FB68202283F83D20002300E002231846F2
:1023E8002037BD4680BD80B584B000AFF860B960C5
:1023F8001346FB80FB6893F83E30DBB2202B1DD1DF
:10240800BB68002B02D0FB88002B01D1012316E00A
:10241800FB6893F83C30012B01D102230FE0FB68E5
:10242800012283F83C20FB6800221A63FB881A46C5
:10243800B968F86800F024FB034600E00223184658
:102448001037BD4680BD000080B5BAB000AF7860D7
:102458007B681B681B68C7F8E4307B681B68DB680F
:10246800C7F8E0307B681B685B69C7F8DC3000237D
:10247800C7F8D8300023C7F8D430D7F8E43003F0D1
:102488000F03C7F8D830D7F8D830002B0FD1D7F8BA
:10249800E43003F02003002B09D0D7F8E03003F034
:1024A8002003002B03D0786800F003FC56E2D7F82D
:1024B800D830002B00F0DE80D7F8DC3003F00103C1
:1024C800002B06D1D7F8E03003F49073002B00F00E
:1024D800D180D7F8E43003F00103002B0BD0D7F8F4
:1024E800E03003F48073002B05D07B681B6C43F04D
:1024F80001027B681A64D7F8E43003F00403002B68
:102508000BD0D7F8DC3003F00103002B05D07B6833
:102518001B6C43F002027B681A64D7F8E43003F0BE
:102528000203002B0BD0D7F8DC3003F00103002B9B
:1025380005D07B681B6C43F004027B681A64D7F8EB
:10254800E43003F00803002B11D0D7F8E03003F093
:102558002003002B05D1D7F8DC3003F00103002B52
:1025680005D07B681B6C43F008027B681A647B68A3
:102578001B6C002B00F0ED81D7F8E43003F020034A
:10258800002B08D0D7F8E03003F02003002B02D04E
:10259800786800F08EFB7B681B685B6903F040037A
:1025A800402B0CBF01230023DBB2C7F8D4307B6873
:1025B8001B6C03F00803002B03D1D7F8D430002B91
:1025C8004FD0786800F096FA7B681B685B6903F067
:1025D8004003402B41D17B681B681433C7F89C30FB
:1025E800D7F89C3053E8003FC7F89830D7F89830B0
:1025F80023F04003C7F8D0307B681B681433D7F842
:10260800D020C7F8A820C7F8A430D7F8A410D7F866
:10261800A82041E80023C7F8A030D7F8A030002B45
:10262800D9D17B689B6B002B13D07B689B6B7D4A51
:102638001A657B689B6B1846FEF705FD0346002B61
:1026480016D07B689B6B1B6D7A68926B1046984717
:102658000EE0786800F090F90AE0786800F08CF9EC
:1026680006E0786800F088F97B6800221A6470E157
:1026780000BF6EE17B681B6B012B40F04A81D7F8E5
:10268800E43003F01003002B00F04381D7F8E0306A
:1026980003F01003002B00F03C810023BB607B6833
:1026A8001B681B68BB607B681B685B68BB60BB689A
:1026B8007B681B685B6903F04003402B40F0B480E3
:1026C8007B689B6B1B685B68A7F8BE30B7F8BE30A9
:1026D800002B00F040817B689B8DB7F8BE209A42A2
:1026E80080F039817B68B7F8BE20DA857B689B6B00
:1026F800DB69B3F5807F00F088807B681B680C334A
:10270800C7F88830D7F8883053E8003FC7F88430D6
:10271800D7F8843023F48073C7F8B8307B681B6817
:102728000C33D7F8B820C7F89420C7F89030D7F8FA
:102738009010D7F8942041E80023C7F88C30D7F8D8
:102748008C30002BD9D17B681B6814337B677B6F77
:1027580053E8003F3B673B6F23F00103C7F8B430F1
:102768007B681B681433D7F8B420C7F88020FB6750
:10277800F96FD7F8802041E80023BB67BB6F002BB7
:10278800E1D17B681B6814333B663B6E53E8003F1E
:10279800FB65FB6D23F04003C7F8B0307B681B680E
:1027A8001433D7F8B020FA66BB66B96EFA6E41E802
:1027B80000237B667B6E002BE3D17B68202283F8A5
:1027C8003E207B6800221A637B681B680C33FB641D
:1027D800FB6C53E8003FBB64BB6C23F01003C7F8E5
:1027E800AC307B681B680C33D7F8AC20BA657B65C6
:1027F800796DBA6D41E800233B653B6D002BE3D151
:102808007B689B6B1846FEF7AEFB7B689A8D7B68EE
:10281800DB8D9BB2D31A9BB21946786800F0B6F8E4
:1028280099E000BFC32B00087B689A8D7B68DB8D1D
:102838009BB2D31AA7F8CE307B68DB8D9BB2002BF6
:1028480000F08B80B7F8CE30002B00F086807B68D4
:102858001B680C33BB63BB6B53E8003F7B637B6B2C
:1028680023F49073C7F8C8307B681B680C33D7F81B
:10287800C8207A643B64396C7A6C41E80023FB63B6
:10288800FB6B002BE3D17B681B6814337B627B6A8C
:1028980053E8003F3B623B6A23F00103C7F8C430AA
:1028A8007B681B681433D7F8C4203A63FB62F96A63
:1028B8003A6B41E80023BB62BB6A002BE3D17B681B
:1028C800202283F83E207B6800221A637B681B68FD
:1028D8000C333B613B6953E8003FFB60FB6823F026
:1028E8001003C7F8C0307B681B680C33D7F8C020CA
:1028F800FA61BB61B969FA6941E800237B617B69C8
:10290800002BE3D1B7F8CE301946786800F03EF8CE
:1029180023E0D7F8E43003F08003002B09D0D7F880
:10292800E03003F08003002B03D0786800F059F9F9
:1029380014E0D7F8E43003F04003002B0ED0D7F8AA
:10294800E03003F04003002B08D0786800F099F9D4
:1029580004E000BF02E000BF00E000BFE837BD466A
:1029680080BD00BF80B483B000AF786000BF0C3773
:10297800BD465DF8047B704780B483B000AF7860D3
:1029880000BF0C37BD465DF8047B704780B483B048
:1029980000AF78600B467B8000BF0C37BD465DF802
:1029A800047B704780B590B000AFF860B9603B60B9
:1029B8001346FB7150E0BB6CB3F1FF3F4CD0BB6CCE
:1029C800002B07D0FEF7B2F902463B68D31ABA6C5F
:1029D8009A4241D2FB681B680C33BB62BB6A53E85E
:1029E800003F7B627B6A23F4D073FB63FB681B6840
:1029F8000C33FA6B7A633B63396B7A6B41E80023DB
:102A0800FB62FB6A002BE5D1FB681B6814337B6112
:102A18007B6953E8003F3B613B6923F00103BB63DB
:102A2800FB681B681433BA6B3A62FB61F9693A6A4E
:102A380041E80023BB61BB69002BE5D1FB6820227C
:102A480083F83D20FB68202283F83E20FB680022A3
:102A580083F83C2003230FE0FB681B681A68BB68F7
:102A68001340BA689A420CBF01230023DBB21A460E
:102A7800FB799A429FD0002318464037BD4680BD57
:102A880080B485B000AFF860B9601346FB80FB687E
:102A9800BA689A62FB68FA889A85FB68FA88DA85C8
:102AA800FB6800221A64FB68222283F83E20FB6838
:102AB800002283F83C20FB681B68DA68FB681B6807
:102AC80042F48072DA60FB681B685A69FB681B680D
:102AD80042F001025A61FB681B68DA68FB681B68F0
:102AE80042F02002DA60002318461437BD465DF82C
:102AF800047B704780B495B000AF78607B681B6832
:102B08000C337B637B6B53E8003F3B633B6B23F4E5
:102B18009073FB647B681B680C33FA6C3A64FB6344
:102B2800F96B3A6C41E80023BB63BB6B002BE5D122
:102B38007B681B6814333B623B6A53E8003FFB61C8
:102B4800FB6923F00103BB647B681B681433BA6C10
:102B5800FA62BB62B96AFA6A41E800237B627B6A5F
:102B6800002BE5D17B681B6B012B19D17B681B6897
:102B78000C33FB60FB6853E8003FBB60BB6823F085
:102B880010037B647B681B680C337A6CBA617B61C9
:102B98007969BA6941E800233B613B69002BE5D1BB
:102BA8007B68202283F83E207B6800221A6300BFDE
:102BB8005437BD465DF8047B704780B584B000AFDC
:102BC80078607B689B6BFB60FB680022DA85FB689A
:102BD8000022DA84F868FFF7CFFE00BF1037BD4641
:102BE80080BD80B485B000AF78607B6893F83D30D5
:102BF800DBB2212B3ED17B689B68B3F5805F14D193
:102C08007B681B69002B10D17B681B6AFB60FB6823
:102C18001B881A467B681B68C2F308025A607B68E7
:102C28001B6A9A1C7B681A6208E07B681B6A591C3D
:102C38007A6811621A787B681B685A607B68DB8C3B
:102C48009BB2013B9BB27A681946D184002B0FD105
:102C58007B681B68DA687B681B6822F08002DA6090
:102C68007B681B68DA687B681B6842F04002DA60A0
:102C7800002300E0022318461437BD465DF8047BA4
:102C8800704780B582B000AF78607B681B68DA68EF
:102C98007B681B6822F04002DA607B68202283F898
:102CA8003D207868FFF75EFE002318460837BD46CA
:102CB80080BD80B58CB000AF78607B6893F83E30FB
:102CC800DBB2222B40F0AB807B689B68B3F5805F5A
:102CD80017D17B681B69002B13D10023FB627B682B
:102CE8009B6ABB627B681B685B689BB2C3F3080383
:102CF8009AB2BB6A1A807B689B6A9A1C7B689A6244
:102D080026E07B689B6AFB620023BB627B689B684A
:102D1800B3F5805F07D07B689B68002B0AD17B687E
:102D28001B69002B06D17B681B685B68DAB2FB6AFB
:102D38001A7008E07B681B685B68DBB203F07F03EE
:102D4800DAB2FB6A1A707B689B6A5A1C7B689A62C3
:102D58007B68DB8D9BB2013B9BB27A681946D185B3
:102D6800002B5AD17B681B68DA687B681B6822F0E5
:102D78002002DA607B681B68DA687B681B6822F4CB
:102D88008072DA607B681B685A697B681B6822F06E
:102D980001025A617B68202283F83E207B681B6B06
:102DA800012B35D17B6800221A637B681B680C33C2
:102DB8007B617B6953E8003F3B613B6923F010036B
:102DC8007B627B681B680C337A6A3A62FB61F9693B
:102DD8003A6A41E80023BB61BB69002BE5D17B68F7
:102DE8001B681B6803F01003102B0AD10023FB603B
:102DF8007B681B681B68FB607B681B685B68FB6003
:102E0800FB687B689B8D19467868FFF7BFFD02E079
:102E18007868FDF759FB002302E0002300E0022355
:102E280018463037BD4680BD2DE9F04F9FB000AF42
:102E3800F866FB6E1B681B6923F44050FB6ED9686B
:102E4800FB6E1A6840EA01031361FB6E9A68FB6E19
:102E58001B691A43FB6E5B691A43FB6EDB691343FC
:102E68003B67FB6E1B68DB6823F4164121F00C01FD
:102E7800FB6E1A683B6F0B43D360FB6E1B685B6984
:102E880023F44070FB6E9969FB6E1A6840EA0103EF
:102E98005361FB6E1A68C54B9A4204D0FB6E1A68E0
:102EA800C34B9A4203D1FFF7ABF9786702E0FFF70B
:102EB80093F97867FB6EDB69B3F5004F40F0B68095
:102EC8007B6F1C464FF0000522462B46911839644B
:102ED8005B417B64D7E91023121945EB03034FF0DC
:102EE80000004FF00001D90041EA5271D0000246BB
:102EF8000B46111939666B417B66FB6E5B681A4697
:102F08004FF000039118B9635B41FB63D7E90E23C7
:102F1800D7E91801FDF75CF902460B46A54BA3FB60
:102F280002235B091E017B6F1C464FF000052246F9
:102F38002B46911839635B417B63D7E90C2312193F
:102F480045EB03034FF000004FF00001D90041EAC0
:102F58005271D00002460B461119B9656B41FB65E9
:102F6800FB6E5B681A464FF000039118B9625B412B
:102F7800FB62D7E90A23D7E91601FDF729F90246CA
:102F88000B468C4BA3FB02135B09642101FB03F383
:102F9800D31ADB003233874AA2FB03235B095B00A9
:102FA80003F4F8731E447B6F18464FF00001024685
:102FB8000B4694183C625B417B62D7E908231218E0
:102FC80041EB03034FF000044FF00005DD0045EA34
:102FD8005275D40022462B4614183C654B417B653C
:102FE800FB6E5B681A464FF000039118B9615B41AC
:102FF800FB61D7E90623D7E91401FDF7E9F8024692
:103008000B466C4BA3FB02135B09642101FB03F322
:10301800D31ADB003233674AA2FB03235B0903F0B0
:103028000702FB6E1B6832449A60B9E07B6F1C464E
:103038004FF0000522462B46911839615B417B61B0
:10304800D7E90423121945EB03034FF000004FF0B2
:103058000001D90041EA5271D00002460B4612EB3A
:10306800040843EB0509FB6E5B6818464FF0000146
:103078004FF000024FF000038B0043EA9073820088
:1030880040464946FDF7A4F802460B46494BA3FBC8
:1030980002235B091E017B6F18464FF000010246B0
:1030A8000B469418BC605B41FB60D7E902231218F9
:1030B80041EB03034FF000044FF00005DD0045EA43
:1030C8005275D40022462B461418BC644B41FB644D
:1030D800FB6E5B6818464FF000014FF000024FF09E
:1030E80000038B0043EA90738200D7E91201FDF7D1
:1030F8006FF802460B462F4BA3FB02135B096421B2
:1031080001FB03F3D31A1B0132332A4AA2FB032320
:103118005B0903F0F0031E447B6F18464FF0000173
:1031280002460B4694183C605B417B60D7E900235C
:10313800121841EB03034FF000044FF00005DD00C7
:1031480045EA5275D40022462B4612EB000A43EB9F
:10315800010BFB6E5B6818464FF000014FF0000250
:103168004FF000038B0043EA9073820050465946A3
:10317800FDF72EF802460B460E4BA3FB02135B0924
:10318800642101FB03F3D31A1B013233094AA2FB62
:1031980003235B0903F00F02FB6E1B6832449A603D
:1031A80000BF7C37BD46BDE8F08F00BF001001406E
:1031B800001401401F85EB5170B50D4D0D4C641B7B
:1031C800A4100026A64209D10B4D0C4C00F020F8A3
:1031D800641BA4100026A64205D170BD55F8043B17
:1031E80098470136EEE755F8043B98470136F2E771
:1031F800543200085432000854320008583200088B
:1032080002440346934200D1704703F8011BF9E7D3
:10321800F8B500BFF8BC08BC9E467047F8B500BFBB
:08322800F8BC08BC9E4670478B
:103230003100000000000000000000000102030453
:0C3240000607080900000000010203045A
:08324C00BCCFFF7F0100000070
:04325400BD010008B0
:0432580099010008D0
:0C325C000024F40010000000010000003D
:0400000508000C15CE
:00000001FF
