:020000040800F2
:1000000000000220AD0800082108000827080008A9
:100010002D08000833080008390800080000000017
:100020000000000000000000000000003F08000881
:100030004D080008000000005B080008690800087F
:10004000FD080008FD080008FD080008FD0800087C
:10005000FD080008FD080008FD080008FD0800086C
:10006000FD080008FD080008FD080008FD0800085C
:10007000FD080008FD080008FD080008FD0800084C
:10008000FD080008FD080008FD0800080000000049
:10009000000000000000000000000000FD08000853
:1000A000FD080008FD080008FD080008FD0800081C
:1000B000FD080008FD080008FD080008FD0800080C
:1000C000FD080008FD080008FD080008FD080008FC
:1000D000FD080008FD080008750800080000000081
:1000E000FD080008FD080008FD08000800000000E9
:1000F000000000000000000000000000FD080008F3
:1001000000000000FD080008FD080008FD080008C8
:1001100000000000000000000000000000000000DF
:10012000FD080008FD080008FD080008FD0800089B
:10013000FD080008000000000000000000000000B2
:10014000000000000000000000000000FD080008A2
:10015000FD080008FD080008FD080008FD0800086B
:10016000FD080008FD080008000000000000000075
:10017000000000000000000000000000000000007F
:1001800000000000FD080008000000000000000062
:08019000FD080008FD0800084D
:1001980010B5054C237833B9044B13B10448AFF3B9
:1001A80000800123237010BD0C0000200000000017
:1001B800E026000808B5034B1BB103490348AFF319
:1001C800008008BD0000000010000020E0260008A4
:1001D80053B94AB9002908BF00281CBF4FF0FF31A6
:1001E8004FF0FF3000F06EB9ADF1080C6DE904CEA8
:1001F80000F006F8DDF804E0DDE9022304B07047FA
:100208002DE9F047089D04468C46002B40F083807A
:100218008A42174647D9B2FA82F242B1C2F12000A7
:1002280024FA00F09140974040EA010C94404FEACC
:100238001748230CBCFBF8F61FFA87FE08FB16C10B
:1002480043EA014306FB0EF1994209D9FB1806F16E
:10025800FF3080F01981994240F21681023E3B44FA
:100268005B1AA4B2B3FBF8F008FB103344EA03446A
:1002780000FB0EFEA64509D93C1900F1FF3380F0BA
:100288000581A64540F2028102383C4440EA064016
:10029800A4EB0E0400261DB1D4400023C5E9004399
:1002A8003146BDE8F08702B9FFDEB2FA82F2002AD1
:1002B80050D1CB1B4FEA174E1FFA87F80126B3FB24
:1002C800FEFC210C0EFB1C3341EA034108FB0CF336
:1002D8008B4207D979180CF1FF3002D28B4200F219
:1002E800E9808446C91AA3B2B1FBFEF00EFB1011D7
:1002F80043EA014408FB00F8A04507D93C1900F17E
:10030800FF3302D2A04500F2D9801846A4EB0804B6
:1003180040EA0C40BFE78B4209D9002D00F0B180BC
:100328000026C5E9000130463146BDE8F087B3FA3A
:1003380083F6002E4AD18B4202D3824200F2B88063
:10034800841A61EB030101208C46002DA8D0C5E971
:10035800004CA5E7C2F1200320FA03F6974001FA02
:1003680002F04FEA174ED9403043030CB1FBFEF6BA
:100378001FFA87F80EFB161143EA014306FB08F142
:10038800994204FA02F409D9FB1806F1FF3C80F0FF
:100398008D80994240F28A80023E3B445B1A81B2CA
:1003A800B3FBFEF00EFB103341EA034100FB08F3F8
:1003B8008B4207D9791800F1FF3C73D28B4271D96F
:1003C80002383944CB1A40EA064678E7C6F1200CD1
:1003D80003FA06F422FA0CF31C4320FA0CF701FA8C
:1003E80006F34FEA144E21FA0CF11F433B0CB1FB04
:1003F800FEF91FFA84F80EFB191143EA014109FBC3
:1004080008FA8A4502FA06F200FA06F308D96118D2
:1004180009F1FF3048D28A4546D9A9F10209214499
:10042800A1EB0A01BFB2B1FBFEF00EFB101147EAC7
:10043800014700FB08F8B84507D9E71900F1FF3173
:100448002ED2B8452CD90238274440EA0940A7EBF8
:100458000807A0FB02894F45C64649461AD317D05C
:100468005DB1B3EB0E0267EB010707FA0CFCF24033
:100478004CEA0202F740C5E9002700263146BDE8EC
:10048800F0872E4628460BE70646E9E61846FDE6BD
:100498004345E5D2B8EB020E69EB04010138DFE70A
:1004A8000846D2E760468DE78146B9E7664675E7B4
:1004B80030464AE7ACF1020C394413E702383C44B1
:1004C80024E700BF704700BF80B582B000AF7860F6
:1004D800064B1B78184600F001F90122034904482D
:1004E80001F053FA00BF0837BD4680BD2800002040
:1004F8002C00002080B500AF00F0FEF900F00EF8E7
:1005080000F094F800F068F801220249024801F06E
:100518003CFAFEE7280000202C00002080B594B0AB
:1005280000AF07F1200330220021184602F0CCF872
:1005380007F10C0300221A605A609A60DA601A61A7
:100548000023BB60224B1B6C214A43F08053136489
:100558001F4B1B6C03F08053BB60BB6800237B60A0
:100568001C4B1B681B4A43F440431360194B1B6820
:1005780003F440437B607B6802233B620123FB62F8
:1005880010233B630023BB6307F12003184600F0E8
:1005980067FD0346002B01D000F09AF80F23FB609B
:1005A80000233B6100237B610023BB610023FB61C7
:1005B80007F10C030021184600F0CAFF0346002B80
:1005C80001D000F085F800BF5037BD4680BD00BFA0
:1005D800003802400070004080B500AF114B124A4D
:1005E8001A60104B4FF4E1325A600E4B00229A60A9
:1005F8000C4B0022DA600B4B00221A61094B0C22CB
:100608005A61084B00229A61064B0022DA610548BC
:1006180001F06EF90346002B01D000F059F800BF35
:1006280080BD00BF2C0000200044004080B588B089
:1006380000AF07F10C0300221A605A609A60DA6072
:100648001A610023BB60204B1B6B1F4A43F0010358
:1006580013631D4B1B6B03F00103BB60BB680023D6
:100668007B60194B1B6B184A43F008031363164B46
:100678001B6B03F008037B607B6800233B60124B15
:100688001B6B114A43F0020313630F4B1B6B03F000
:1006980002033B603B6800224FF480510B4800F096
:1006A800C5FC4FF48053FB6001233B6100237B6151
:1006B8000023BB6107F10C031946044800F032FB24
:1006C80000BF2037BD4680BD00380240000C024004
:1006D80080B400AF72B600BFFEE7000080B582B0FC
:1006E80000AF0346FB710E4B03F5FA531B885A1CE7
:1006F80091B20B4A02F5FA5211801946084AFB7961
:100708005354074B5B78202B05D101224FF48051BD
:10071800044800F08BFC00BF00BF0837BD4680BD11
:1007280070000020000C024080B483B000AF0023AA
:100738007B60104B5B6C0F4A43F4804353640D4B52
:100748005B6C03F480437B607B6800233B60094B50
:100758001B6C084A43F080531364064B1B6C03F070
:1007680080533B603B6800BF0C37BD465DF8047B97
:10077800704700BF0038024080B58AB000AF78608B
:1007880007F1140300221A605A609A60DA601A614D
:100798007B681B681D4A934233D100233B611C4B85
:1007A8001B6C1B4A43F400331364194B1B6C03F492
:1007B80000333B613B690023FB60154B1B6B144AFC
:1007C80043F001031363124B1B6B03F00103FB603F
:1007D800FB680C237B610223BB610023FB610323BD
:1007E8003B6207237B6207F114031946094800F0AE
:1007F80099FA00220121262000F0CBF9262000F0EA
:10080800E4F900BF2837BD4680BD00BF0044004062
:10081800003802400000024080B400AFFEE780B418
:1008280000AFFEE780B400AFFEE780B400AFFEE79C
:1008380080B400AFFEE780B400AF00BFBD465DF8EE
:10084800047B704780B400AF00BFBD465DF8047BF1
:10085800704780B400AF00BFBD465DF8047B7047A9
:1008680080B500AF00F09AF800BF80BD80B500AF3A
:10087800024801F0BBF800BF80BD00BF2C0000207B
:1008880080B400AF064BD3F88830054A43F47003B0
:10089800C2F8883000BFBD465DF8047B704700BFD2
:1008A80000ED00E0DFF834D00D480E490E4A002371
:1008B80002E0D458C4500433C4188C42F9D30B4A0C
:1008C8000B4C002301E013600432A242FBD3FFF774
:1008D800D7FF01F0D5FEFFF70DFE7047000002209C
:1008E800000000200C000020202700080C00002039
:1008F800B81F0020FEE7000080B500AF0E4B1B6854
:100908000D4A43F4007313600B4B1B680A4A43F407
:1009180080631360084B1B68074A43F480731360B5
:10092800032000F02BF90F2000F008F8FFF7FCFE79
:100938000023184680BD00BF003C024080B582B04D
:1009480000AF7860124B1A68124B1B7819464FF4A7
:100958007A73B3FBF1F3B2FBF3F3184600F043F9F3
:100968000346002B01D001230EE07B680F2B0AD829
:10097800002279684FF0FF3000F00BF9064A7B68D7
:100988001360002300E0012318460837BD4680BDE8
:1009980000000020080000200400002080B400AF00
:1009A800064B1B781A46064B1B681344044A13600F
:1009B80000BFBD465DF8047B704700BF08000020FB
:1009C800B41F002080B400AF034B1B681846BD4617
:1009D8005DF8047B704700BFB41F002080B485B069
:1009E80000AF78607B6803F00703FB600C4BDB68A3
:1009F800BB60BA684FF6FF031340BB60FB681A027E
:100A0800BB68134343F0BF6343F40033BB60044A3D
:100A1800BB68D36000BF1437BD465DF8047B7047E0
:100A280000ED00E080B400AF044BDB681B0A03F064
:100A380007031846BD465DF8047B704700ED00E0EB
:100A480080B483B000AF0346FB7197F90730002BE1
:100A58000BDBFB7903F01F02074997F907305B09A5
:100A6800012000FA02F241F8232000BF0C37BD46EE
:100A78005DF8047B704700BF00E100E080B483B0FC
:100A880000AF03463960FB7197F90730002B0ADB8A
:100A98003B68DAB20C4997F907301201D2B20B441D
:100AA80083F800230AE03B68DAB20849FB7903F0CF
:100AB8000F03043B1201D2B20B441A7600BF0C3765
:100AC800BD465DF8047B704700E100E000ED00E002
:100AD80080B489B000AFF860B9607A60FB6803F051
:100AE8000703FB61FB69C3F10703042B28BF042339
:100AF800BB61FB690433062B02D9FB69033B00E0A9
:100B080000237B614FF0FF32BB6902FA03F3DA433B
:100B1800BB681A407B699A404FF0FF317B6901FA44
:100B280003F3D9437B680B40134318462437BD466B
:100B38005DF8047B7047000080B582B000AF786034
:100B48007B68013BB3F1807F01D301230FE00A4AA0
:100B58007B68013B53600F214FF0FF30FFF78EFF9A
:100B6800054B00229A60044B07221A60002318469E
:100B78000837BD4680BD00BF10E000E080B582B0F8
:100B880000AF78607868FFF729FF00BF0837BD46D7
:100B980080BD80B586B000AF0346B9607A60FB734C
:100BA80000237B61FFF73EFF78617A68B96878694E
:100BB800FFF78EFF024697F90F3011461846FFF7E8
:100BC8005DFF00BF1837BD4680BD80B582B000AF5D
:100BD8000346FB7197F907301846FFF731FF00BF4E
:100BE8000837BD4680BD80B582B000AF78607868B0
:100BF800FFF7A2FF034618460837BD4680BD80B5FB
:100C080084B000AF78607B689B6DFB60FFF7DAFE0D
:100C1800B8607B6893F83530DBB2022B08D07B686C
:100C280080225A657B68002283F83420012352E031
:100C38007B681B681A687B681B6822F016021A60BA
:100C48007B681B685A697B681B6822F080025A61BE
:100C58007B681B6C002B03D17B689B6C002B07D037
:100C68007B681B681A687B681B6822F008021A6098
:100C78007B681B681A687B681B6822F001021A608F
:100C880013E0FFF79FFE0246BB68D31A052B0CD969
:100C98007B6820225A657B68032283F835207B68AD
:100CA800002283F83420032315E07B681B681B6847
:100CB80003F00103002BE4D17B68DB6D3F229A40EF
:100CC800FB689A607B68012283F835207B680022E4
:100CD80083F83420002318461037BD4680BD80B401
:100CE80083B000AF78607B6893F83530DBB2022BB5
:100CF80004D07B6880225A6501230CE07B680522BA
:100D080083F835207B681B681A687B681B6822F0AB
:100D180001021A60002318460C37BD465DF8047BB3
:100D28007047000080B489B000AF78603960002354
:100D38007B6100233B610023BB610023FB6159E118
:100D48000122FB6902FA03F37B613B681B687A693D
:100D580013403B613A697B699A4240F048813B689D
:100D68005B6803F00303012B05D03B685B6803F065
:100D78000303022B30D17B689B68BB61FB695B0076
:100D8800032202FA03F3DB43BA691340BB613B68F1
:100D9800DA68FB695B0002FA03F3BA691343BB61C3
:100DA8007B68BA699A607B685B68BB610122FB69F2
:100DB80002FA03F3DB43BA691340BB613B685B6823
:100DC8001B0903F00102FB6902FA03F3BA69134332
:100DD800BB617B68BA695A603B685B6803F00303D0
:100DE800032B17D07B68DB68BB61FB695B000322C0
:100DF80002FA03F3DB43BA691340BB613B689A68A4
:100E0800FB695B0002FA03F3BA691343BB617B68B1
:100E1800BA69DA603B685B6803F00303022B23D1ED
:100E2800FB69DA087B68083253F82230BB61FB693A
:100E380003F007039B000F2202FA03F3DB43BA69AE
:100E48001340BB613B681A69FB6903F007039B0009
:100E580002FA03F3BA691343BB61FB69DA087B68DA
:100E68000832B96943F822107B681B68BB61FB69CB
:100E78005B00032202FA03F3DB43BA691340BB6148
:100E88003B685B6803F00302FB695B0002FA03F34B
:100E9800BA691343BB617B68BA691A603B685B68CF
:100EA80003F44033002B00F0A2800023FB60574B73
:100EB8005B6C564A43F480435364544B5B6C03F4B5
:100EC8008043FB60FB68524AFB699B08023352F877
:100ED8002330BB61FB6903F003039B000F2202FA76
:100EE80003F3DB43BA691340BB617B68494A934209
:100EF80019D07B68484A934213D07B68474A93428B
:100F08000DD07B68464A934207D07B68454A934296
:100F180001D1042308E0072306E0032304E00223A9
:100F280002E0012300E00023FA6902F003029200C4
:100F38009340BA691343BB613549FB699B08023387
:100F4800BA6941F82320384B1B68BB613B69DB4316
:100F5800BA691340BB613B685B6803F48033002BBC
:100F680003D0BA693B691343BB612F4ABB6913605D
:100F78002D4B5B68BB613B69DB43BA691340BB61BE
:100F88003B685B6803F40033002B03D0BA693B6904
:100F98001343BB61244ABB695360234B9B68BB6105
:100FA8003B69DB43BA691340BB613B685B6803F488
:100FB8008013002B03D0BA693B691343BB611A4AFB
:100FC800BB699360184BDB68BB613B69DB43BA695B
:100FD8001340BB613B685B6803F40013002B03D02C
:100FE800BA693B691343BB610F4ABB69D360FB69AC
:100FF8000133FB61FB690F2B7FF6A2AE00BF00BF78
:101008002437BD465DF8047B704700BF00380240B6
:10101800003801400000024000040240000802407D
:10102800000C024000100240003C014080B483B034
:1010380000AF78600B467B8013467B707B78002B73
:1010480003D07A887B689A6103E07B881A047B68FE
:101058009A6100BF0C37BD465DF8047B70470000FD
:1010680080B586B000AF78607B68002B01D1012382
:1010780064E27B681B6803F00103002B75D0A34B67
:101088009B6803F00C03042B0CD0A04B9B6803F067
:101098000C03082B12D19D4B5B6803F48003B3F556
:1010A800800F0BD1994B1B6803F40033002B5BD0E6
:1010B8007B685B68002B57D101233FE27B685B6844
:1010C800B3F5803F06D1914B1B68904A43F48033B7
:1010D80013601DE07B685B68B3F5A02F0CD18B4BC8
:1010E8001B688A4A43F480231360884B1B68874A2D
:1010F80043F4803313600BE0844B1B68834A23F46A
:1011080080331360814B1B68804A23F4802313606B
:101118007B685B68002B13D0FFF754FC386108E04C
:10112800FFF750FC02463B69D31A642B01D903230D
:1011380004E2764B1B6803F40033002BF0D014E074
:10114800FFF740FC386108E0FFF73CFC02463B69CA
:10115800D31A642B01D90323F0E16C4B1B6803F409
:101168000033002BF0D100E000BF7B681B6803F060
:101178000203002B63D0654B9B6803F00C03002B24
:101188000BD0624B9B6803F00C03082B1CD15F4B00
:101198005B6803F48003002B16D15C4B1B6803F0DB
:1011A8000203002B05D07B68DB68012B01D00123EB
:1011B800C4E1564B1B6823F0F8027B681B69DB000F
:1011C800524913430B603AE07B68DB68002B20D060
:1011D8004F4B01221A60FFF7F5FB386108E0FFF773
:1011E800F1FB02463B69D31A022B01D90323A5E17F
:1011F800464B1B6803F00203002BF0D0434B1B68DF
:1012080023F0F8027B681B69DB00404913430B603D
:1012180015E03F4B00221A60FFF7D4FB386108E065
:10122800FFF7D0FB02463B69D31A022B01D90323EF
:1012380084E1364B1B6803F00203002BF0D17B6876
:101248001B6803F00803002B30D07B685B69002B18
:1012580016D0304B01221A60FFF7B4FB386108E062
:10126800FFF7B0FB02463B69D31A022B01D90323CF
:1012780064E1264B5B6F03F00203002BF0D015E00E
:10128800244B00221A60FFF79DFB386108E0FFF746
:1012980099FB02463B69D31A022B01D903234DE17E
:1012A8001A4B5B6F03F00203002BF0D17B681B68BD
:1012B80003F00403002B00F0A0800023FB75134B00
:1012C8001B6C03F08053002B0FD10023BB600F4B26
:1012D8001B6C0E4A43F0805313640C4B1B6C03F0D9
:1012E8008053BB60BB680123FB750B4B1B6803F481
:1012F8008073002B21D1084B1B68074A43F4807385
:101308001360FFF75FFB386111E000BF003802404F
:1013180000004742800E474200700040FFF752FB32
:1013280002463B69D31A022B01D9032306E1854BF8
:101338001B6803F48073002BF0D07B689B68012B3B
:1013480006D1814B1B6F804A43F0010313671CE0F1
:101358007B689B68052B0CD17B4B1B6F7A4A43F04B
:1013680004031367784B1B6F774A43F00103136735
:101378000BE0754B1B6F744A23F001031367724B24
:101388001B6F714A23F0040313677B689B68002B6B
:1013980015D0FFF717FB38610AE0FFF713FB024689
:1013A8003B69D31A41F28832934201D90323C5E03D
:1013B800654B1B6F03F00203002BEED014E0FFF720
:1013C80001FB38610AE0FFF7FDFA02463B69D31AD0
:1013D80041F28832934201D90323AFE05A4B1B6F85
:1013E80003F00203002BEED1FB7D012B05D1564BF8
:1013F8001B6C554A23F0805313647B689B69002B50
:1014080000F09B80504B9B6803F00C03082B5CD0CA
:101418007B689B69022B41D14C4B00221A60FFF775
:10142800D1FA386108E0FFF7CDFA02463B69D31AD2
:10143800022B01D9032381E0434B1B6803F000739F
:10144800002BF0D17B68DA697B681B6A1A437B68DA
:101458005B6A9B011A437B689B6A5B08013B1B0420
:101468001A437B68DB6A1B06374913434B60374BCB
:1014780001221A60FFF7A6FA386108E0FFF7A2FA1E
:1014880002463B69D31A022B01D9032356E02E4B9F
:101498001B6803F00073002BF0D04EE02B4B0022AA
:1014A8001A60FFF78FFA386108E0FFF78BFA0246F7
:1014B8003B69D31A022B01D903233FE0224B1B6857
:1014C80003F00073002BF0D137E07B689B69012B98
:1014D80001D1012332E01C4B5B68FB607B689B6990
:1014E800012B28D0FB6803F480027B68DB699A42F1
:1014F80021D1FB6803F03F027B681B6A9A421AD12C
:10150800FA6847F6C07313407A68526A92019342A8
:1015180011D1FB6803F440327B689B6A5B08013B8E
:101528001B049A4207D1FB6803F070627B68DB6A90
:101538001B069A4201D0012300E000231846183701
:10154800BD4680BD00700040003802406000474240
:1015580080B584B000AF786039607B68002B01D11A
:101568000123CCE0684B1B6803F007033A689A42F2
:101578000CD9654B3A68D2B21A70634B1B6803F0FA
:1015880007033A689A4201D00123B8E07B681B68D8
:1015980003F00203002B20D07B681B6803F00403D0
:1015A800002B05D0594B9B68584A43F4E05393608D
:1015B8007B681B6803F00803002B05D0534B9B681E
:1015C800524A43F460439360504B9B6823F0F00207
:1015D8007B689B684D4913438B607B681B6803F0ED
:1015E8000103002B44D07B685B68012B07D1474B74
:1015F8001B6803F40033002B19D101237FE07B68BB
:101608005B68022B03D07B685B68032B07D13F4BD9
:101618001B6803F00073002B09D101236FE03B4BDB
:101628001B6803F00203002B01D1012367E0374B4D
:101638009B6823F003027B685B68344913438B6023
:10164800FFF7C0F9F8600AE0FFF7BCF90246FB684B
:10165800D31A41F28832934201D903234FE02B4B2E
:101668009B6803F00C027B685B689B009A42EBD195
:10167800254B1B6803F007033A689A420CD2224BA9
:101688003A68D2B21A70204B1B6803F007033A6815
:101698009A4201D0012332E07B681B6803F00403FF
:1016A800002B08D0194B9B6823F4E0527B68DB6859
:1016B800164913438B607B681B6803F00803002BF3
:1016C80009D0124B9B6823F460427B681B69DB00DE
:1016D8000E4913438B6000F021F802460B4B9B68C0
:1016E8001B0903F00F030A49CB5C22FA03F3094AEA
:1016F8001360094B1B681846FFF720F900231846AA
:101708001037BD4680BD00BF003C02400038024093
:10171800F82600080000002004000020B0B584B0BE
:1017280000AF002179600021F960002139600021B3
:10173800B9605249896801F00C0108290DD00829BF
:1017480000F29480002902D0042903D08EE04C4B8B
:10175800BB608EE04B4BBB608BE04849496801F0A9
:101768003F0179604549496801F48001002924D086
:1017780042494968890908464FF0000140F2FF14C0
:101788004FF0000500EA040201EA05033D4901FBA8
:1017980003F0002101FB02F144183A49A2FB0101C0
:1017A800631819467B681A464FF00003FEF710FDD0
:1017B80002460B461346FB604AE0304B5B689B09C8
:1017C8001A464FF0000340F2FF104FF0000102EA02
:1017D800000403EA0105204629464FF000024FF0B5
:1017E80000034B0143EAD063420110461946001B2F
:1017F80061EB05014FF000024FF000038B0143EA53
:1018080090638201121A63EB01034FF000004FF05E
:101818000001D90041EA5271D00002460B46121964
:1018280045EB03034FF000004FF00001990241EA35
:101838009251900202460B46104619467B681A469A
:101848004FF00003FEF7C4FC02460B461346FB604C
:101858000A4B5B681B0C03F0030301335B003B601E
:10186800FA683B68B2FBF3F3BB6002E0044BBB6071
:1018780000BFBB6818461037BD46B0BD00380240EF
:101888000024F40040787D0180B400AF034B1B684E
:101898001846BD465DF8047B704700BF0000002075
:1018A80080B500AFFFF7F0FF0246054B9B689B0A27
:1018B80003F007030349CB5C22FA03F3184680BD03
:1018C800003802400827000880B500AFFFF7DCFFAA
:1018D8000246054B9B685B0B03F007030349CB5C8F
:1018E80022FA03F3184680BD003802400827000892
:1018F80080B582B000AF78607B68002B01D10123EE
:101908003FE07B6893F83D30DBB2002B06D17B6863
:10191800002283F83C207868FEF72EFF7B6824229B
:1019280083F83D207B681B68DA687B681B6822F4B3
:101938000052DA60786800F0DBFC7B681B681A6983
:101948007B681B6822F490421A617B681B685A699D
:101958007B681B6822F02A025A617B681B68DA6878
:101968007B681B6842F40052DA607B6800221A64C4
:101978007B68202283F83D207B68202283F83E2064
:10198800002318460837BD4680BD80B584B000AF37
:10199800F860B9601346FB80FB6893F83E30DBB211
:1019A800202B1DD1BB68002B02D0FB88002B01D156
:1019B800012316E0FB6893F83C30012B01D1022388
:1019C8000FE0FB68012283F83C20FB6800221A63C1
:1019D800FB881A46B968F86800F0B6FA034600E0D2
:1019E800022318461037BD4680BD000080B5BAB046
:1019F80000AF78607B681B681B68C7F8E4307B68B9
:101A08001B68DB68C7F8E0307B681B685B69C7F850
:101A1800DC300023C7F8D8300023C7F8D430D7F813
:101A2800E43003F00F03C7F8D830D7F8D830002BCC
:101A38000FD1D7F8E43003F02003002B09D0D7F8F2
:101A4800E03003F02003002B03D0786800F095FB0A
:101A580056E2D7F8D830002B00F0DE80D7F8DC301B
:101A680003F00103002B06D1D7F8E03003F490739C
:101A7800002B00F0D180D7F8E43003F00103002BED
:101A88000BD0D7F8E03003F48073002B05D07B68C7
:101A98001B6C43F001027B681A64D7F8E43003F04A
:101AA8000403002B0BD0D7F8DC3003F00103002B24
:101AB80005D07B681B6C43F002027B681A64D7F878
:101AC800E43003F00203002B0BD0D7F8DC3003F02E
:101AD8000103002B05D07B681B6C43F004027B6874
:101AE8001A64D7F8E43003F00803002B11D0D7F8B4
:101AF800E03003F02003002B05D1D7F8DC3003F0E9
:101B08000103002B05D07B681B6C43F008027B683F
:101B18001A647B681B6C002B00F0ED81D7F8E43069
:101B280003F02003002B08D0D7F8E03003F020039F
:101B3800002B02D0786800F020FB7B681B685B698B
:101B480003F04003402B0CBF01230023DBB2C7F88E
:101B5800D4307B681B6C03F00803002B03D1D7F843
:101B6800D430002B4FD0786800F028FA7B681B68C7
:101B78005B6903F04003402B41D17B681B68143339
:101B8800C7F89C30D7F89C3053E8003FC7F8983026
:101B9800D7F8983023F04003C7F8D0307B681B682B
:101BA8001433D7F8D020C7F8A820C7F8A430D7F83E
:101BB800A410D7F8A82041E80023C7F8A030D7F828
:101BC800A030002BD9D17B689B6B002B13D07B688E
:101BD8009B6B7D4A1A657B689B6B1846FFF77FF8FD
:101BE8000346002B16D07B689B6B1B6D7A68926B43
:101BF800104698470EE0786800F090F90AE0786897
:101C080000F08CF906E0786800F088F97B6800221B
:101C18001A6470E100BF6EE17B681B6B012B40F01A
:101C28004A81D7F8E43003F01003002B00F0438119
:101C3800D7F8E03003F01003002B00F03C810023BC
:101C4800BB607B681B681B68BB607B681B685B6844
:101C5800BB60BB687B681B685B6903F04003402B73
:101C680040F0B4807B689B6B1B685B68A7F8BE304C
:101C7800B7F8BE30002B00F040817B689B8DB7F829
:101C8800BE209A4280F039817B68B7F8BE20DA8599
:101C98007B689B6BDB69B3F5807F00F088807B688D
:101CA8001B680C33C7F88830D7F8883053E8003FF2
:101CB800C7F88430D7F8843023F48073C7F8B83075
:101CC8007B681B680C33D7F8B820C7F89420C7F88E
:101CD8009030D7F89010D7F8942041E80023C7F83F
:101CE8008C30D7F88C30002BD9D17B681B68143323
:101CF8007B677B6F53E8003F3B673B6F23F0010333
:101D0800C7F8B4307B681B681433D7F8B420C7F819
:101D18008020FB67F96FD7F8802041E80023BB6774
:101D2800BB6F002BE1D17B681B6814333B663B6EAD
:101D380053E8003FFB65FB6D23F04003C7F8B03064
:101D48007B681B681433D7F8B020FA66BB66B96E97
:101D5800FA6E41E800237B667B6E002BE3D17B683B
:101D6800202283F83E207B6800221A637B681B6868
:101D78000C33FB64FB6C53E8003FBB64BB6C23F083
:101D88001003C7F8AC307B681B680C33D7F8AC205D
:101D9800BA657B65796DBA6D41E800233B653B6D9B
:101DA800002BE3D17B689B6B1846FEF728FF7B6806
:101DB8009A8D7B68DB8D9BB2D31A9BB219467868E3
:101DC80000F0B6F899E000BF8B2000087B689A8D78
:101DD8007B68DB8D9BB2D31AA7F8CE307B68DB8D8E
:101DE8009BB2002B00F08B80B7F8CE30002B00F0B0
:101DF80086807B681B680C33BB63BB6B53E8003F72
:101E08007B637B6B23F49073C7F8C8307B681B68CF
:101E18000C33D7F8C8207A643B64396C7A6C41E893
:101E28000023FB63FB6B002BE3D17B681B68143337
:101E38007B627B6A53E8003F3B623B6A23F0010305
:101E4800C7F8C4307B681B681433D7F8C4203A63DA
:101E5800FB62F96A3A6B41E80023BB62BB6A002B5C
:101E6800E3D17B68202283F83E207B6800221A6336
:101E78007B681B680C333B613B6953E8003FFB60A0
:101E8800FB6823F01003C7F8C0307B681B680C336D
:101E9800D7F8C020FA61BB61B969FA6941E8002343
:101EA8007B617B69002BE3D1B7F8CE30194678689F
:101EB80000F03EF823E0D7F8E43003F08003002B6D
:101EC80009D0D7F8E03003F08003002B03D07868FE
:101ED80000F0EBF814E0D7F8E43003F04003002BEF
:101EE8000ED0D7F8E03003F04003002B08D0786814
:101EF80000F02BF904E000BF02E000BF00E000BFE3
:101F0800E837BD4680BD00BF80B483B000AF7860BD
:101F180000BF0C37BD465DF8047B704780B483B0C2
:101F280000AF786000BF0C37BD465DF8047B704792
:101F380080B483B000AF78600B467B8000BF0C375D
:101F4800BD465DF8047B704780B485B000AFF8608B
:101F5800B9601346FB80FB68BA689A62FB68FA8826
:101F68009A85FB68FA88DA85FB6800221A64FB68A0
:101F7800222283F83E20FB68002283F83C20FB687D
:101F88001B68DA68FB681B6842F48072DA60FB68D9
:101F98001B685A69FB681B6842F001025A61FB68BA
:101FA8001B68DA68FB681B6842F02002DA600023CD
:101FB80018461437BD465DF8047B704780B495B069
:101FC80000AF78607B681B680C337B637B6B53E8DE
:101FD800003F3B633B6B23F49073FB647B681B6897
:101FE8000C33FA6C3A64FB63F96B3A6C41E80023F2
:101FF800BB63BB6B002BE5D17B681B6814333B626A
:102008003B6A53E8003FFB61FB6923F00103BB64B3
:102018007B681B681433BA6CFA62BB62B96AFA6AE5
:1020280041E800237B627B6A002BE5D17B681B6B50
:10203800012B19D17B681B680C33FB60FB6853E8E4
:10204800003FBB60BB6823F010037B647B681B68A0
:102058000C337A6CBA617B617969BA6941E800230B
:102068003B613B69002BE5D17B68202283F83E2049
:102078007B6800221A6300BF5437BD465DF8047BB5
:10208800704780B584B000AF78607B689B6BFB605D
:10209800FB680022DA85FB680022DA84F868FFF71B
:1020A8003DFF00BF1037BD4680BD80B485B000AF8E
:1020B80078607B6893F83D30DBB2212B3ED17B689A
:1020C8009B68B3F5805F14D17B681B69002B10D126
:1020D8007B681B6AFB60FB681B881A467B681B6869
:1020E800C2F308025A607B681B6A9A1C7B681A62F2
:1020F80008E07B681B6A591C7A6811621A787B6849
:102108001B685A607B68DB8C9BB2013B9BB27A6888
:102118001946D184002B0FD17B681B68DA687B686D
:102128001B6822F08002DA607B681B68DA687B68CB
:102138001B6842F04002DA60002300E002231846E0
:102148001437BD465DF8047B704780B582B000AF98
:1021580078607B681B68DA687B681B6822F040023D
:10216800DA607B68202283F83D207868FFF7CCFE90
:10217800002318460837BD4680BD80B58CB000AF37
:1021880078607B6893F83E30DBB2222B40F0AB805E
:102198007B689B68B3F5805F17D17B681B69002B50
:1021A80013D10023FB627B689B6ABB627B681B6858
:1021B8005B689BB2C3F308039AB2BB6A1A807B6858
:1021C8009B6A9A1C7B689A6226E07B689B6AFB6222
:1021D8000023BB627B689B68B3F5805F07D07B6890
:1021E8009B68002B0AD17B681B69002B06D17B6892
:1021F8001B685B68DAB2FB6A1A7008E07B681B68C8
:102208005B68DBB203F07F03DAB2FB6A1A707B68A3
:102218009B6A5A1C7B689A627B68DB8D9BB2013B88
:102228009BB27A681946D185002B5AD17B681B6806
:10223800DA687B681B6822F02002DA607B681B681A
:10224800DA687B681B6822F48072DA607B681B6836
:102258005A697B681B6822F001025A617B68202258
:1022680083F83E207B681B6B012B35D17B680022ED
:102278001A637B681B680C337B617B6953E8003FFA
:102288003B613B6923F010037B627B681B680C335E
:102298007A6A3A62FB61F9693A6A41E80023BB61EC
:1022A800BB69002BE5D17B681B681B6803F0100332
:1022B800102B0AD10023FB607B681B681B68FB603E
:1022C8007B681B685B68FB60FB687B689B8D1946B5
:1022D8007868FFF72DFE02E07868FEF7F5F800232E
:1022E80002E0002300E0022318463037BD4680BDD7
:1022F8002DE9F04F9FB000AFF866FB6E1B681B69B5
:1023080023F44050FB6ED968FB6E1A6840EA01035B
:102318001361FB6E9A68FB6E1B691A43FB6E5B695F
:102328001A43FB6EDB6913433B67FB6E1B68DB6874
:1023380023F4164121F00C01FB6E1A683B6F0B4326
:10234800D360FB6E1B685B6923F44070FB6E996970
:10235800FB6E1A6840EA01035361FB6E1A68C54BAD
:102368009A4204D0FB6E1A68C34B9A4203D1FFF716
:10237800ABFA786702E0FFF793FA7867FB6EDB69E0
:10238800B3F5004F40F0B6807B6F1C464FF0000558
:1023980022462B46911839645B417B64D7E91023A8
:1023A800121945EB03034FF000004FF00001D9006C
:1023B80041EA5271D00002460B46111939666B4149
:1023C8007B66FB6E5B681A464FF000039118B96391
:1023D8005B41FB63D7E90E23D7E91801FDF7F8FE47
:1023E80002460B46A54BA3FB02235B091E017B6F2C
:1023F8001C464FF0000522462B46911839635B4175
:102408007B63D7E90C23121945EB03034FF0000057
:102418004FF00001D90041EA5271D00002460B4644
:102428001119B9656B41FB65FB6E5B681A464FF085
:1024380000039118B9625B41FB62D7E90A23D7E927
:102448001601FDF7C5FE02460B468C4BA3FB021393
:102458005B09642101FB03F3D31ADB003233874A9B
:10246800A2FB03235B095B0003F4F8731E447B6F34
:1024780018464FF0000102460B4694183C625B4137
:102488007B62D7E90823121841EB03034FF00004DD
:102498004FF00005DD0045EA5275D40022462B4670
:1024A80014183C654B417B65FB6E5B681A464FF020
:1024B80000039118B9615B41FB61D7E90623D7E9AD
:1024C8001401FDF785FE02460B466C4BA3FB021375
:1024D8005B09642101FB03F3D31ADB003233674A3B
:1024E800A2FB03235B0903F00702FB6E1B6832445F
:1024F8009A60B9E07B6F1C464FF0000522462B46D8
:10250800911839615B417B61D7E90423121945EBC6
:1025180003034FF000004FF00001D90041EA527167
:10252800D00002460B4612EB040843EB0509FB6E8C
:102538005B6818464FF000014FF000024FF00003AF
:102548008B0043EA9073820040464946FDF740FEFF
:1025580002460B46494BA3FB02235B091E017B6F16
:1025680018464FF0000102460B469418BC605B41C8
:10257800FB60D7E90223121841EB03034FF0000474
:102588004FF00005DD0045EA5275D40022462B467F
:102598001418BC644B41FB64FB6E5B6818464FF033
:1025A80000014FF000024FF000038B0043EA9073E4
:1025B8008200D7E91201FDF70BFE02460B462F4BAE
:1025C800A3FB02135B09642101FB03F3D31A1B016C
:1025D80032332A4AA2FB03235B0903F0F0031E44AB
:1025E8007B6F18464FF0000102460B4694183C607A
:1025F8005B417B60D7E90023121841EB03034FF0DE
:1026080000044FF00005DD0045EA5275D40022466B
:102618002B4612EB000A43EB010BFB6E5B68184676
:102628004FF000014FF000024FF000038B0043EA27
:102638009073820050465946FDF7CAFD02460B4684
:102648000E4BA3FB02135B09642101FB03F3D31AAE
:102658001B013233094AA2FB03235B0903F00F0273
:10266800FB6E1B6832449A6000BF7C37BD46BDE8EC
:10267800F08F00BF00100140001401401F85EB518E
:1026880070B50D4D0D4C641BA4100026A64209D14F
:102698000B4D0C4C00F020F8641BA4100026A64239
:1026A80005D170BD55F8043B98470136EEE755F85B
:1026B800043B98470136F2E7182700081827000856
:1026C800182700081C27000802440346934200D13B
:1026D800704703F8011BF9E7F8B500BFF8BC08BC60
:1026E8009E467047F8B500BFF8BC08BC9E467047C8
:1026F80000000000000000000102030406070809AA
:082708000000000001020304BF
:08271000F8DAFF7F0100000070
:04271800BD010008F7
:04271C009901000817
:0C2720000024F400100000000100000084
:04000005080008AD3A
:00000001FF
